{
  "contractName": "ClaimTypesRegistry",
  "abi": [
    {
      "constant": false,
      "inputs": [],
      "name": "renounceOwnership",
      "outputs": [],
      "payable": false,
      "stateMutability": "nonpayable",
      "type": "function"
    },
    {
      "constant": true,
      "inputs": [],
      "name": "owner",
      "outputs": [
        {
          "name": "",
          "type": "address"
        }
      ],
      "payable": false,
      "stateMutability": "view",
      "type": "function"
    },
    {
      "constant": true,
      "inputs": [],
      "name": "isOwner",
      "outputs": [
        {
          "name": "",
          "type": "bool"
        }
      ],
      "payable": false,
      "stateMutability": "view",
      "type": "function"
    },
    {
      "constant": true,
      "inputs": [
        {
          "name": "",
          "type": "uint256"
        }
      ],
      "name": "claimTypes",
      "outputs": [
        {
          "name": "",
          "type": "uint256"
        }
      ],
      "payable": false,
      "stateMutability": "view",
      "type": "function"
    },
    {
      "constant": false,
      "inputs": [
        {
          "name": "newOwner",
          "type": "address"
        }
      ],
      "name": "transferOwnership",
      "outputs": [],
      "payable": false,
      "stateMutability": "nonpayable",
      "type": "function"
    },
    {
      "anonymous": false,
      "inputs": [
        {
          "indexed": true,
          "name": "claimType",
          "type": "uint256"
        }
      ],
      "name": "claimTypeAdded",
      "type": "event"
    },
    {
      "anonymous": false,
      "inputs": [
        {
          "indexed": true,
          "name": "claimType",
          "type": "uint256"
        }
      ],
      "name": "claimTypeRemoved",
      "type": "event"
    },
    {
      "anonymous": false,
      "inputs": [
        {
          "indexed": true,
          "name": "previousOwner",
          "type": "address"
        },
        {
          "indexed": true,
          "name": "newOwner",
          "type": "address"
        }
      ],
      "name": "OwnershipTransferred",
      "type": "event"
    },
    {
      "constant": false,
      "inputs": [
        {
          "name": "claimType",
          "type": "uint256"
        }
      ],
      "name": "addClaimType",
      "outputs": [],
      "payable": false,
      "stateMutability": "nonpayable",
      "type": "function"
    },
    {
      "constant": false,
      "inputs": [
        {
          "name": "claimType",
          "type": "uint256"
        }
      ],
      "name": "removeClaimType",
      "outputs": [],
      "payable": false,
      "stateMutability": "nonpayable",
      "type": "function"
    },
    {
      "constant": true,
      "inputs": [],
      "name": "getClaimTypes",
      "outputs": [
        {
          "name": "",
          "type": "uint256[]"
        }
      ],
      "payable": false,
      "stateMutability": "view",
      "type": "function"
    }
  ],
  "bytecode": "0x6080604052336000806101000a81548173ffffffffffffffffffffffffffffffffffffffff021916908373ffffffffffffffffffffffffffffffffffffffff1602179055506000809054906101000a900473ffffffffffffffffffffffffffffffffffffffff1673ffffffffffffffffffffffffffffffffffffffff16600073ffffffffffffffffffffffffffffffffffffffff167f8be0079c531659141344cd1fd0a4f28419497f9722a3daafe3b4186f6b6457e060405160405180910390a3610820806100cf6000396000f30060806040526004361061008e576000357c0100000000000000000000000000000000000000000000000000000000900463ffffffff16806316f91d13146100935780632b3b0de8146100ff578063360201b51461012c578063715018a6146101595780638da5cb5b146101705780638f32d59b146101c7578063c1edcdc1146101f6578063f2fde38b14610237575b600080fd5b34801561009f57600080fd5b506100a861027a565b6040518080602001828103825283818151815260200191508051906020019060200280838360005b838110156100eb5780820151818401526020810190506100d0565b505050509050019250505060405180910390f35b34801561010b57600080fd5b5061012a600480360381019080803590602001909291905050506102d2565b005b34801561013857600080fd5b50610157600480360381019080803590602001909291905050506103f9565b005b34801561016557600080fd5b5061016e610515565b005b34801561017c57600080fd5b506101856105e7565b604051808273ffffffffffffffffffffffffffffffffffffffff1673ffffffffffffffffffffffffffffffffffffffff16815260200191505060405180910390f35b3480156101d357600080fd5b506101dc610610565b604051808215151515815260200191505060405180910390f35b34801561020257600080fd5b5061022160048036038101908080359060200190929190505050610667565b6040518082815260200191505060405180910390f35b34801561024357600080fd5b50610278600480360381019080803573ffffffffffffffffffffffffffffffffffffffff16906020019092919050505061068a565b005b606060018054806020026020016040519081016040528092919081815260200182805480156102c857602002820191906000526020600020905b8154815260200190600101908083116102b4575b5050505050905090565b6000806102dd610610565b15156102e857600080fd5b6001805490509150600090505b8181101561039b578260018281548110151561030d57fe5b90600052602060002001541415151561038e576040517f08c379a00000000000000000000000000000000000000000000000000000000081526004018080602001828103825260188152602001807f636c61696d5479706520616c726561647920657869737473000000000000000081525060200191505060405180910390fd5b80806001019150506102f5565b6001839080600181540180825580915050906001820390600052602060002001600090919290919091505550827f43754be114a3a0b1f00da131178b02d38f722dd251c2849234bc682224a5b18f60405160405180910390a2505050565b600080610404610610565b151561040f57600080fd5b6001805490509150600090505b8181101561050f578260018281548110151561043457fe5b906000526020600020015414156105025760018181548110151561045457fe5b9060005260206000200160009055600180830381548110151561047357fe5b906000526020600020015460018281548110151561048d57fe5b906000526020600020018190555060018083038154811015156104ac57fe5b906000526020600020016000905560018054809190600190036104cf91906107a3565b50827fc79cb3e98811a838dd4898106a959a69ac8a77d7199c9c6ae854b59c711a4f3b60405160405180910390a2610510565b808060010191505061041c565b5b505050565b61051d610610565b151561052857600080fd5b600073ffffffffffffffffffffffffffffffffffffffff166000809054906101000a900473ffffffffffffffffffffffffffffffffffffffff1673ffffffffffffffffffffffffffffffffffffffff167f8be0079c531659141344cd1fd0a4f28419497f9722a3daafe3b4186f6b6457e060405160405180910390a360008060006101000a81548173ffffffffffffffffffffffffffffffffffffffff021916908373ffffffffffffffffffffffffffffffffffffffff160217905550565b60008060009054906101000a900473ffffffffffffffffffffffffffffffffffffffff16905090565b60008060009054906101000a900473ffffffffffffffffffffffffffffffffffffffff1673ffffffffffffffffffffffffffffffffffffffff163373ffffffffffffffffffffffffffffffffffffffff1614905090565b60018181548110151561067657fe5b906000526020600020016000915090505481565b610692610610565b151561069d57600080fd5b6106a6816106a9565b50565b600073ffffffffffffffffffffffffffffffffffffffff168173ffffffffffffffffffffffffffffffffffffffff16141515156106e557600080fd5b8073ffffffffffffffffffffffffffffffffffffffff166000809054906101000a900473ffffffffffffffffffffffffffffffffffffffff1673ffffffffffffffffffffffffffffffffffffffff167f8be0079c531659141344cd1fd0a4f28419497f9722a3daafe3b4186f6b6457e060405160405180910390a3806000806101000a81548173ffffffffffffffffffffffffffffffffffffffff021916908373ffffffffffffffffffffffffffffffffffffffff16021790555050565b8154818355818111156107ca578183600052602060002091820191016107c991906107cf565b5b505050565b6107f191905b808211156107ed5760008160009055506001016107d5565b5090565b905600a165627a7a72305820404236352671c9e04bc8b7c21ba5db1e5fad91e624377267102a7c7e2e9aa62d0029",
  "source": "pragma solidity ^0.4.24;\n\nimport \"openzeppelin-solidity/contracts/ownership/Ownable.sol\";\n\n\ncontract ClaimTypesRegistry is Ownable {\n    uint256[] public claimTypes;\n\n    event claimTypeAdded(uint256 indexed claimType);\n    event claimTypeRemoved(uint256 indexed claimType);\n\n    /**\n    * @notice Add a trusted claim type (For example: KYC=1, AML=2).\n    * Only owner can call.\n    *\n    * @param claimType The uint256 of claim type\n    */\n    function addClaimType(uint256 claimType) public onlyOwner {\n        uint length = claimTypes.length;\n        for (uint i = 0; i < length; i++) {\n            require(claimTypes[i] != claimType, \"claimType already exists\");\n        }\n        claimTypes.push(claimType);\n        emit claimTypeAdded(claimType);\n    }\n\n    /**\n    * @notice Remove a trusted claim type (For example: KYC=1, AML=2).\n    * Only owner can call.\n    *\n    * @param claimType The uint256 of claim type\n    */\n    function removeClaimType(uint256 claimType) public onlyOwner {\n        uint length = claimTypes.length;\n        for (uint i = 0; i < length; i++) {\n            if (claimTypes[i] == claimType) {\n                delete claimTypes[i];\n                claimTypes[i] = claimTypes[length - 1];\n                delete claimTypes[length - 1];\n                claimTypes.length--;\n                emit claimTypeRemoved(claimType);\n                return;\n            }\n        }\n    }\n\n    /**\n    * @notice Get the trusted claim types for the identity services\n    *\n    * @return Array of trusted claim types\n    */\n    function getClaimTypes() public view  returns (uint256[] memory) {\n        return claimTypes;\n    }\n}",
  "sourcePath": "/Users/quanth/Documents/DecentralizedTwitter/contracts/Identity/ClaimTypesRegistry.sol",
  "compiler": {
    "name": "solc",
    "version": "0.4.24+commit.e67f0147.Emscripten.clang"
  },
  "schemaVersion": "3.0.16",
  "updatedAt": "2019-11-26T09:09:23.246Z",
  "devdoc": {
    "methods": {
      "addClaimType(uint256)": {
        "params": {
          "claimType": "The uint256 of claim type"
        }
      },
      "getClaimTypes()": {
        "return": "Array of trusted claim types"
      },
      "isOwner()": {
        "return": "true if `msg.sender` is the owner of the contract."
      },
      "owner()": {
        "return": "the address of the owner."
      },
      "removeClaimType(uint256)": {
        "params": {
          "claimType": "The uint256 of claim type"
        }
      },
      "renounceOwnership()": {
        "details": "Allows the current owner to relinquish control of the contract."
      },
      "transferOwnership(address)": {
        "details": "Allows the current owner to transfer control of the contract to a newOwner.",
        "params": {
          "newOwner": "The address to transfer ownership to."
        }
      }
    }
  },
  "userdoc": {
    "methods": {
      "addClaimType(uint256)": {
        "notice": "Add a trusted claim type (For example: KYC=1, AML=2). Only owner can call."
      },
      "getClaimTypes()": {
        "notice": "Get the trusted claim types for the identity services"
      },
      "removeClaimType(uint256)": {
        "notice": "Remove a trusted claim type (For example: KYC=1, AML=2). Only owner can call."
      },
      "renounceOwnership()": {
        "notice": "Renouncing to ownership will leave the contract without an owner. It will not be possible to call the functions with the `onlyOwner` modifier anymore."
      }
    }
  }
}