{
  "contractName": "ClaimVerifier",
  "abi": [
    {
      "anonymous": false,
      "inputs": [
        {
          "indexed": false,
          "name": "_identity",
          "type": "address"
        },
        {
          "indexed": false,
          "name": "claimType",
          "type": "uint256"
        }
      ],
      "name": "ClaimValid",
      "type": "event"
    },
    {
      "anonymous": false,
      "inputs": [
        {
          "indexed": false,
          "name": "_identity",
          "type": "address"
        },
        {
          "indexed": false,
          "name": "claimType",
          "type": "uint256"
        }
      ],
      "name": "ClaimInvalid",
      "type": "event"
    },
    {
      "constant": true,
      "inputs": [
        {
          "name": "_identity",
          "type": "address"
        },
        {
          "name": "claimType",
          "type": "uint256"
        }
      ],
      "name": "claimIsValid",
      "outputs": [
        {
          "name": "claimValid",
          "type": "bool"
        }
      ],
      "payable": false,
      "stateMutability": "view",
      "type": "function"
    },
    {
      "constant": true,
      "inputs": [
        {
          "name": "sig",
          "type": "bytes"
        },
        {
          "name": "dataHash",
          "type": "bytes32"
        }
      ],
      "name": "getRecoveredAddress",
      "outputs": [
        {
          "name": "addr",
          "type": "address"
        }
      ],
      "payable": false,
      "stateMutability": "view",
      "type": "function"
    }
  ],
  "bytecode": "0x608060405234801561001057600080fd5b50610aea806100206000396000f30060806040526004361061004c576000357c0100000000000000000000000000000000000000000000000000000000900463ffffffff1680639fecd55414610051578063c3b129e3146100b6575b600080fd5b34801561005d57600080fd5b5061009c600480360381019080803573ffffffffffffffffffffffffffffffffffffffff1690602001909291908035906020019092919050505061016d565b604051808215151515815260200191505060405180910390f35b3480156100c257600080fd5b5061012b600480360381019080803590602001908201803590602001908080601f01602080910402602001604051908101604052809392919081815260200183838082843782019150505050505091929192908035600019169060200190929190505050610974565b604051808273ffffffffffffffffffffffffffffffffffffffff1673ffffffffffffffffffffffffffffffffffffffff16815260200191505060405180910390f35b600080600080606080600080600080600080600260009054906101000a900473ffffffffffffffffffffffffffffffffffffffff1673ffffffffffffffffffffffffffffffffffffffff1663d9dd24c56040518163ffffffff167c0100000000000000000000000000000000000000000000000000000000028152600401600060405180830381600087803b15801561020557600080fd5b505af1158015610219573d6000803e3d6000fd5b505050506040513d6000823e3d601f19601f82011682018060405250602081101561024357600080fd5b81019080805164010000000081111561025b57600080fd5b8281019050602081018481111561027157600080fd5b815185602082028301116401000000008211171561028e57600080fd5b5050929190505050600090805190602001906102ab929190610a4c565b50600095505b6000805490508610156108f357600260009054906101000a900473ffffffffffffffffffffffffffffffffffffffff1673ffffffffffffffffffffffffffffffffffffffff166391b1fdeb60008881548110151561030b57fe5b90600052602060002001546040518263ffffffff167c010000000000000000000000000000000000000000000000000000000002815260040180828152602001915050602060405180830381600087803b15801561036857600080fd5b505af115801561037c573d6000803e3d6000fd5b505050506040513d602081101561039257600080fd5b8101908080519060200190929190505050600160006101000a81548173ffffffffffffffffffffffffffffffffffffffff021916908373ffffffffffffffffffffffffffffffffffffffff160217905550600160009054906101000a900473ffffffffffffffffffffffffffffffffffffffff168d604051808373ffffffffffffffffffffffffffffffffffffffff1673ffffffffffffffffffffffffffffffffffffffff166c0100000000000000000000000002815260140182815260200192505050604051809103902094508d73ffffffffffffffffffffffffffffffffffffffff1663c9100bcb866040518263ffffffff167c0100000000000000000000000000000000000000000000000000000000028152600401808260001916600019168152602001915050600060405180830381600087803b1580156104d757600080fd5b505af11580156104eb573d6000803e3d6000fd5b505050506040513d6000823e3d601f19601f8201168201806040525060c081101561051557600080fd5b81019080805190602001909291908051906020019092919080519060200190929190805164010000000081111561054b57600080fd5b8281019050602081018481111561056157600080fd5b815185600182028301116401000000008211171561057e57600080fd5b5050929190602001805164010000000081111561059a57600080fd5b828101905060208101848111156105b057600080fd5b81518560018202830111640100000000821117156105cd57600080fd5b505092919060200180516401000000008111156105e957600080fd5b828101905060208101848111156105ff57600080fd5b815185600182028301116401000000008211171561061c57600080fd5b505092919050505050809b50819c50829d50839e50849f5050505050508d8d88604051808473ffffffffffffffffffffffffffffffffffffffff1673ffffffffffffffffffffffffffffffffffffffff166c0100000000000000000000000002815260140183815260200182805190602001908083835b6020831015156106b85780518252602082019150602081019050602083039250610693565b6001836020036101000a0380198251168184511680821785525050505050509050019350505050604051809103902093508360405180807f19457468657265756d205369676e6564204d6573736167653a0a333200000000815250601c0182600019166000191681526020019150506040518091039020925061073b8884610974565b915081604051808273ffffffffffffffffffffffffffffffffffffffff1673ffffffffffffffffffffffffffffffffffffffff166c0100000000000000000000000002815260140191505060405180910390209050600160009054906101000a900473ffffffffffffffffffffffffffffffffffffffff1673ffffffffffffffffffffffffffffffffffffffff1663d202158d8260036040518363ffffffff167c010000000000000000000000000000000000000000000000000000000002815260040180836000191660001916815260200182815260200192505050602060405180830381600087803b15801561083257600080fd5b505af1158015610846573d6000803e3d6000fd5b505050506040513d602081101561085c57600080fd5b8101908080519060200190929190505050156108e6577f5637aa6b77cde2de563765b75a65099af73d3bf22cb9d089a64a01777823208e8e8e604051808373ffffffffffffffffffffffffffffffffffffffff1673ffffffffffffffffffffffffffffffffffffffff1681526020018281526020019250505060405180910390a160019b50610963565b85806001019650506102b1565b7fc1e461cfcaa9ff5efbb053582a325fbfebec1d94ac7e9d9958ee7f74c2b6b5588e8e604051808373ffffffffffffffffffffffffffffffffffffffff1673ffffffffffffffffffffffffffffffffffffffff1681526020018281526020019250505060405180910390a160009b505b505050505050505050505092915050565b6000806000806000604187511415156109905760009450610a42565b6020870151935060408701519250606087015160001a9150601b8260ff1610156109bb57601b820191505b600186838686604051600081526020016040526040518085600019166000191681526020018460ff1660ff1681526020018360001916600019168152602001826000191660001916815260200194505050505060206040516020810390808403906000865af1158015610a32573d6000803e3d6000fd5b5050506020604051035190508094505b5050505092915050565b828054828255906000526020600020908101928215610a88579160200282015b82811115610a87578251825591602001919060010190610a6c565b5b509050610a959190610a99565b5090565b610abb91905b80821115610ab7576000816000905550600101610a9f565b5090565b905600a165627a7a7230582084a17d8d3682a406b6afb93053198375e87dfb1aa676ae5a015226d1770430ec0029",
  "source": "pragma solidity ^0.4.24;\n\nimport \"./ClaimHolder.sol\";\nimport \"./TrustedIssuersRegistry.sol\";\n\ncontract ClaimVerifier{\n\n    uint[] issuerIndexes;\n    ClaimHolder trustedClaimHolder;\n    TrustedIssuersRegistry issuersRegistry;\n\n    event ClaimValid(ClaimHolder _identity, uint256 claimType);\n    event ClaimInvalid(ClaimHolder _identity, uint256 claimType);\n\n    /**\n    * @notice Check valid or invalid of given claim by ClaimHolder\n    * @param _identity ClaimHolder contract address\n    * @param claimType type of given claim by ClaimHolder\n    * @return true or false\n    */\n    function claimIsValid(ClaimHolder _identity, uint256 claimType)\n    public\n    constant\n    returns (bool claimValid)\n    {\n        uint256 foundClaimType;\n        uint256 scheme;\n        address issuer;\n        bytes memory sig;\n        bytes memory data;\n\n        issuerIndexes = issuersRegistry.getTrustedIssuers();\n\n        for(uint i = 0; i<issuerIndexes.length; i++) {\n            trustedClaimHolder = issuersRegistry.getTrustedIssuer(issuerIndexes[i]);\n            // Construct claimId (identifier + claim type)\n            bytes32 claimId = keccak256(trustedClaimHolder, claimType);\n\n            // Fetch claim from user\n            ( foundClaimType, scheme, issuer, sig, data, ) = _identity.getClaim(claimId);\n\n            bytes32 dataHash = keccak256(_identity, claimType, data);\n            bytes32 prefixedHash = keccak256(\"\\x19Ethereum Signed Message:\\n32\", dataHash);\n\n            // Recover address of data signer\n            address recovered = getRecoveredAddress(sig, prefixedHash);\n\n            // Take hash of recovered address\n            bytes32 hashedAddr = keccak256(recovered);\n\n            // Does the trusted identifier have they key which signed the user's claim?\n            if(trustedClaimHolder.keyHasPurpose(hashedAddr, 3)) {\n                emit ClaimValid(_identity, claimType);\n                return true;\n            }\n        }\n        emit ClaimInvalid(_identity, claimType);\n        return false;\n    }\n\n    /**\n    * @notice Get address of signed data\n    * @param sig signed data in bytes32\n    * @param dataHash hash of data in bytes32\n    * @return address of signed data\n    */\n\n    function getRecoveredAddress(bytes sig, bytes32 dataHash)\n        public\n        view\n        returns (address addr)\n    {\n        bytes32 ra;\n        bytes32 sa;\n        uint8 va;\n\n        // Check the signature length\n        if (sig.length != 65) {\n            return (0);\n        }\n\n        // Divide the signature in r, s and v variables\n        assembly {\n          ra := mload(add(sig, 32))\n          sa := mload(add(sig, 64))\n          va := byte(0, mload(add(sig, 96)))\n        }\n\n        if (va < 27) {\n            va += 27;\n        }\n\n        address recoveredAddress = ecrecover(dataHash, va, ra, sa);\n\n        return (recoveredAddress);\n    }\n}",
  "sourcePath": "/Users/quanth/Documents/DecentralizedTwitter/contracts/Identity/ClaimVerifier.sol",
  "compiler": {
    "name": "solc",
    "version": "0.4.24+commit.e67f0147.Emscripten.clang"
  },
  "schemaVersion": "3.0.16",
  "updatedAt": "2019-11-25T09:05:39.759Z",
  "devdoc": {
    "methods": {
      "claimIsValid(address,uint256)": {
        "params": {
          "_identity": "ClaimHolder contract address",
          "claimType": "type of given claim by ClaimHolder"
        },
        "return": "true or false"
      },
      "getRecoveredAddress(bytes,bytes32)": {
        "params": {
          "dataHash": "hash of data in bytes32",
          "sig": "signed data in bytes32"
        },
        "return": "address of signed data"
      }
    }
  },
  "userdoc": {
    "methods": {
      "claimIsValid(address,uint256)": {
        "notice": "Check valid or invalid of given claim by ClaimHolder"
      },
      "getRecoveredAddress(bytes,bytes32)": {
        "notice": "Get address of signed data"
      }
    }
  }
}