{
  "contractName": "IdentityRegistry",
  "abi": [
    {
      "constant": false,
      "inputs": [],
      "name": "renounceOwnership",
      "outputs": [],
      "payable": false,
      "stateMutability": "nonpayable",
      "type": "function"
    },
    {
      "constant": true,
      "inputs": [],
      "name": "owner",
      "outputs": [
        {
          "name": "",
          "type": "address"
        }
      ],
      "payable": false,
      "stateMutability": "view",
      "type": "function"
    },
    {
      "constant": true,
      "inputs": [],
      "name": "isOwner",
      "outputs": [
        {
          "name": "",
          "type": "bool"
        }
      ],
      "payable": false,
      "stateMutability": "view",
      "type": "function"
    },
    {
      "constant": true,
      "inputs": [
        {
          "name": "_identity",
          "type": "address"
        },
        {
          "name": "claimType",
          "type": "uint256"
        }
      ],
      "name": "claimIsValid",
      "outputs": [
        {
          "name": "claimValid",
          "type": "bool"
        }
      ],
      "payable": false,
      "stateMutability": "view",
      "type": "function"
    },
    {
      "constant": true,
      "inputs": [],
      "name": "typesRegistry",
      "outputs": [
        {
          "name": "",
          "type": "address"
        }
      ],
      "payable": false,
      "stateMutability": "view",
      "type": "function"
    },
    {
      "constant": true,
      "inputs": [
        {
          "name": "",
          "type": "uint256"
        }
      ],
      "name": "identity",
      "outputs": [
        {
          "name": "",
          "type": "address"
        }
      ],
      "payable": false,
      "stateMutability": "view",
      "type": "function"
    },
    {
      "constant": true,
      "inputs": [
        {
          "name": "",
          "type": "uint256"
        }
      ],
      "name": "claimTypes",
      "outputs": [
        {
          "name": "",
          "type": "uint256"
        }
      ],
      "payable": false,
      "stateMutability": "view",
      "type": "function"
    },
    {
      "constant": true,
      "inputs": [
        {
          "name": "sig",
          "type": "bytes"
        },
        {
          "name": "dataHash",
          "type": "bytes32"
        }
      ],
      "name": "getRecoveredAddress",
      "outputs": [
        {
          "name": "addr",
          "type": "address"
        }
      ],
      "payable": false,
      "stateMutability": "view",
      "type": "function"
    },
    {
      "constant": false,
      "inputs": [
        {
          "name": "newOwner",
          "type": "address"
        }
      ],
      "name": "transferOwnership",
      "outputs": [],
      "payable": false,
      "stateMutability": "nonpayable",
      "type": "function"
    },
    {
      "inputs": [
        {
          "name": "_trustedIssuersRegistry",
          "type": "address"
        },
        {
          "name": "_claimTypesRegistry",
          "type": "address"
        }
      ],
      "payable": false,
      "stateMutability": "nonpayable",
      "type": "constructor"
    },
    {
      "anonymous": false,
      "inputs": [
        {
          "indexed": true,
          "name": "identity",
          "type": "address"
        },
        {
          "indexed": true,
          "name": "index",
          "type": "uint256"
        }
      ],
      "name": "IdentityRegistered",
      "type": "event"
    },
    {
      "anonymous": false,
      "inputs": [
        {
          "indexed": true,
          "name": "identity",
          "type": "address"
        },
        {
          "indexed": true,
          "name": "index",
          "type": "uint256"
        }
      ],
      "name": "IdentityRemoved",
      "type": "event"
    },
    {
      "anonymous": false,
      "inputs": [
        {
          "indexed": true,
          "name": "_claimTypesRegistry",
          "type": "address"
        }
      ],
      "name": "ClaimTypesRegistrySet",
      "type": "event"
    },
    {
      "anonymous": false,
      "inputs": [
        {
          "indexed": true,
          "name": "_trustedIssuersRegistry",
          "type": "address"
        }
      ],
      "name": "TrustedIssuersRegistrySet",
      "type": "event"
    },
    {
      "anonymous": false,
      "inputs": [
        {
          "indexed": false,
          "name": "_identity",
          "type": "address"
        },
        {
          "indexed": false,
          "name": "claimType",
          "type": "uint256"
        }
      ],
      "name": "ClaimValid",
      "type": "event"
    },
    {
      "anonymous": false,
      "inputs": [
        {
          "indexed": false,
          "name": "_identity",
          "type": "address"
        },
        {
          "indexed": false,
          "name": "claimType",
          "type": "uint256"
        }
      ],
      "name": "ClaimInvalid",
      "type": "event"
    },
    {
      "anonymous": false,
      "inputs": [
        {
          "indexed": true,
          "name": "previousOwner",
          "type": "address"
        },
        {
          "indexed": true,
          "name": "newOwner",
          "type": "address"
        }
      ],
      "name": "OwnershipTransferred",
      "type": "event"
    },
    {
      "constant": false,
      "inputs": [
        {
          "name": "index",
          "type": "uint256"
        },
        {
          "name": "_identity",
          "type": "address"
        }
      ],
      "name": "registerIdentity",
      "outputs": [
        {
          "name": "",
          "type": "bool"
        }
      ],
      "payable": false,
      "stateMutability": "nonpayable",
      "type": "function"
    },
    {
      "constant": false,
      "inputs": [
        {
          "name": "index",
          "type": "uint256"
        }
      ],
      "name": "removeIdentity",
      "outputs": [
        {
          "name": "",
          "type": "bool"
        }
      ],
      "payable": false,
      "stateMutability": "nonpayable",
      "type": "function"
    },
    {
      "constant": false,
      "inputs": [
        {
          "name": "_claimTypesRegistry",
          "type": "address"
        }
      ],
      "name": "setClaimTypesRegistry",
      "outputs": [],
      "payable": false,
      "stateMutability": "nonpayable",
      "type": "function"
    },
    {
      "constant": false,
      "inputs": [
        {
          "name": "_trustedIssuersRegistry",
          "type": "address"
        }
      ],
      "name": "setTrustedIssuerRegistry",
      "outputs": [],
      "payable": false,
      "stateMutability": "nonpayable",
      "type": "function"
    },
    {
      "constant": false,
      "inputs": [
        {
          "name": "_identity",
          "type": "address"
        }
      ],
      "name": "checkValidIdentity",
      "outputs": [
        {
          "name": "",
          "type": "bool"
        }
      ],
      "payable": false,
      "stateMutability": "nonpayable",
      "type": "function"
    }
  ],
  "bytecode": "0x608060405234801561001057600080fd5b50604051604080611a2a8339810180604052810190808051906020019092919080519060200190929190505050336000806101000a81548173ffffffffffffffffffffffffffffffffffffffff021916908373ffffffffffffffffffffffffffffffffffffffff1602179055506000809054906101000a900473ffffffffffffffffffffffffffffffffffffffff1673ffffffffffffffffffffffffffffffffffffffff16600073ffffffffffffffffffffffffffffffffffffffff167f8be0079c531659141344cd1fd0a4f28419497f9722a3daafe3b4186f6b6457e060405160405180910390a381600360006101000a81548173ffffffffffffffffffffffffffffffffffffffff021916908373ffffffffffffffffffffffffffffffffffffffff1602179055508173ffffffffffffffffffffffffffffffffffffffff167f1b98cb79e6f73020175fe87333f1b91ad6a881519c0afe30340c2599b2b4bde060405160405180910390a280600660006101000a81548173ffffffffffffffffffffffffffffffffffffffff021916908373ffffffffffffffffffffffffffffffffffffffff1602179055508073ffffffffffffffffffffffffffffffffffffffff167f19d81f7cb533715237b1db77a43b32bca3f63b44f684cbcd6e321e450eabb4f860405160405180910390a25050611818806102126000396000f3006080604052600436106100d0576000357c0100000000000000000000000000000000000000000000000000000000900463ffffffff1680631c2d74f2146100d5578063331cca2114610118578063389c980e1461015d578063715018a6146101c25780638da5cb5b146101d95780638f32d59b146102305780639fecd5541461025f5780639ff04d33146102c4578063ac37eebb1461031b578063b760dab914610388578063c1edcdc1146103e3578063c3b129e314610424578063f2fde38b146104db578063f6b4c5301461051e575b600080fd5b3480156100e157600080fd5b50610116600480360381019080803573ffffffffffffffffffffffffffffffffffffffff169060200190929190505050610561565b005b34801561012457600080fd5b50610143600480360381019080803590602001909291905050506105fb565b604051808215151515815260200191505060405180910390f35b34801561016957600080fd5b506101a860048036038101908080359060200190929190803573ffffffffffffffffffffffffffffffffffffffff169060200190929190505050610735565b604051808215151515815260200191505060405180910390f35b3480156101ce57600080fd5b506101d761098f565b005b3480156101e557600080fd5b506101ee610a61565b604051808273ffffffffffffffffffffffffffffffffffffffff1673ffffffffffffffffffffffffffffffffffffffff16815260200191505060405180910390f35b34801561023c57600080fd5b50610245610a8a565b604051808215151515815260200191505060405180910390f35b34801561026b57600080fd5b506102aa600480360381019080803573ffffffffffffffffffffffffffffffffffffffff16906020019092919080359060200190929190505050610ae1565b604051808215151515815260200191505060405180910390f35b3480156102d057600080fd5b506102d96112e8565b604051808273ffffffffffffffffffffffffffffffffffffffff1673ffffffffffffffffffffffffffffffffffffffff16815260200191505060405180910390f35b34801561032757600080fd5b506103466004803603810190808035906020019092919050505061130e565b604051808273ffffffffffffffffffffffffffffffffffffffff1673ffffffffffffffffffffffffffffffffffffffff16815260200191505060405180910390f35b34801561039457600080fd5b506103c9600480360381019080803573ffffffffffffffffffffffffffffffffffffffff169060200190929190505050611341565b604051808215151515815260200191505060405180910390f35b3480156103ef57600080fd5b5061040e600480360381019080803590602001909291905050506114cc565b6040518082815260200191505060405180910390f35b34801561043057600080fd5b50610499600480360381019080803590602001908201803590602001908080601f016020809104026020016040519081016040528093929190818152602001838380828437820191505050505050919291929080356000191690602001909291905050506114ef565b604051808273ffffffffffffffffffffffffffffffffffffffff1673ffffffffffffffffffffffffffffffffffffffff16815260200191505060405180910390f35b3480156104e757600080fd5b5061051c600480360381019080803573ffffffffffffffffffffffffffffffffffffffff1690602001909291905050506115c7565b005b34801561052a57600080fd5b5061055f600480360381019080803573ffffffffffffffffffffffffffffffffffffffff1690602001909291905050506115e6565b005b610569610a8a565b151561057457600080fd5b80600660006101000a81548173ffffffffffffffffffffffffffffffffffffffff021916908373ffffffffffffffffffffffffffffffffffffffff1602179055508073ffffffffffffffffffffffffffffffffffffffff167f19d81f7cb533715237b1db77a43b32bca3f63b44f684cbcd6e321e450eabb4f860405160405180910390a250565b6000610605610a8a565b151561061057600080fd5b600073ffffffffffffffffffffffffffffffffffffffff166004600084815260200190815260200160002060009054906101000a900473ffffffffffffffffffffffffffffffffffffffff1673ffffffffffffffffffffffffffffffffffffffff161415151561067f57600080fd5b816004600084815260200190815260200160002060009054906101000a900473ffffffffffffffffffffffffffffffffffffffff1673ffffffffffffffffffffffffffffffffffffffff167ff06dfe9062e9317cd357560ea667d65a9b032f1a674c04e99653e894e145c8fa60405160405180910390a36004600083815260200190815260200160002060006101000a81549073ffffffffffffffffffffffffffffffffffffffff021916905560019050919050565b600081600073ffffffffffffffffffffffffffffffffffffffff168173ffffffffffffffffffffffffffffffffffffffff1614151515610803576040517f08c379a00000000000000000000000000000000000000000000000000000000081526004018080602001828103825260288152602001807f636f6e747261637420616464726573732063616e27742062652061207a65726f81526020017f206164647265737300000000000000000000000000000000000000000000000081525060400191505060405180910390fd5b61080c81611341565b1515610880576040517f08c379a000000000000000000000000000000000000000000000000000000000815260040180806020018281038252601f8152602001807f596f757220436c61696d206973206e6f742076616c696420666f72204b59430081525060200191505060405180910390fd5b600073ffffffffffffffffffffffffffffffffffffffff166004600086815260200190815260200160002060009054906101000a900473ffffffffffffffffffffffffffffffffffffffff1673ffffffffffffffffffffffffffffffffffffffff161415156108ee57600080fd5b826004600086815260200190815260200160002060006101000a81548173ffffffffffffffffffffffffffffffffffffffff021916908373ffffffffffffffffffffffffffffffffffffffff160217905550838373ffffffffffffffffffffffffffffffffffffffff167f22bfb6218489c201b6ec174e5dd0380b7877b3a2d12eed0542f6b5e8ef712f2860405160405180910390a3600191505092915050565b610997610a8a565b15156109a257600080fd5b600073ffffffffffffffffffffffffffffffffffffffff166000809054906101000a900473ffffffffffffffffffffffffffffffffffffffff1673ffffffffffffffffffffffffffffffffffffffff167f8be0079c531659141344cd1fd0a4f28419497f9722a3daafe3b4186f6b6457e060405160405180910390a360008060006101000a81548173ffffffffffffffffffffffffffffffffffffffff021916908373ffffffffffffffffffffffffffffffffffffffff160217905550565b60008060009054906101000a900473ffffffffffffffffffffffffffffffffffffffff16905090565b60008060009054906101000a900473ffffffffffffffffffffffffffffffffffffffff1673ffffffffffffffffffffffffffffffffffffffff163373ffffffffffffffffffffffffffffffffffffffff1614905090565b600080600080606080600080600080600080600360009054906101000a900473ffffffffffffffffffffffffffffffffffffffff1673ffffffffffffffffffffffffffffffffffffffff1663d9dd24c56040518163ffffffff167c0100000000000000000000000000000000000000000000000000000000028152600401600060405180830381600087803b158015610b7957600080fd5b505af1158015610b8d573d6000803e3d6000fd5b505050506040513d6000823e3d601f19601f820116820180604052506020811015610bb757600080fd5b810190808051640100000000811115610bcf57600080fd5b82810190506020810184811115610be557600080fd5b8151856020820283011164010000000082111715610c0257600080fd5b505092919050505060019080519060200190610c1f92919061177a565b50600095505b60018054905086101561126757600360009054906101000a900473ffffffffffffffffffffffffffffffffffffffff1673ffffffffffffffffffffffffffffffffffffffff166391b1fdeb600188815481101515610c7f57fe5b90600052602060002001546040518263ffffffff167c010000000000000000000000000000000000000000000000000000000002815260040180828152602001915050602060405180830381600087803b158015610cdc57600080fd5b505af1158015610cf0573d6000803e3d6000fd5b505050506040513d6020811015610d0657600080fd5b8101908080519060200190929190505050600260006101000a81548173ffffffffffffffffffffffffffffffffffffffff021916908373ffffffffffffffffffffffffffffffffffffffff160217905550600260009054906101000a900473ffffffffffffffffffffffffffffffffffffffff168d604051808373ffffffffffffffffffffffffffffffffffffffff1673ffffffffffffffffffffffffffffffffffffffff166c0100000000000000000000000002815260140182815260200192505050604051809103902094508d73ffffffffffffffffffffffffffffffffffffffff1663c9100bcb866040518263ffffffff167c0100000000000000000000000000000000000000000000000000000000028152600401808260001916600019168152602001915050600060405180830381600087803b158015610e4b57600080fd5b505af1158015610e5f573d6000803e3d6000fd5b505050506040513d6000823e3d601f19601f8201168201806040525060c0811015610e8957600080fd5b810190808051906020019092919080519060200190929190805190602001909291908051640100000000811115610ebf57600080fd5b82810190506020810184811115610ed557600080fd5b8151856001820283011164010000000082111715610ef257600080fd5b50509291906020018051640100000000811115610f0e57600080fd5b82810190506020810184811115610f2457600080fd5b8151856001820283011164010000000082111715610f4157600080fd5b50509291906020018051640100000000811115610f5d57600080fd5b82810190506020810184811115610f7357600080fd5b8151856001820283011164010000000082111715610f9057600080fd5b505092919050505050809b50819c50829d50839e50849f5050505050508d8d88604051808473ffffffffffffffffffffffffffffffffffffffff1673ffffffffffffffffffffffffffffffffffffffff166c0100000000000000000000000002815260140183815260200182805190602001908083835b60208310151561102c5780518252602082019150602081019050602083039250611007565b6001836020036101000a0380198251168184511680821785525050505050509050019350505050604051809103902093508360405180807f19457468657265756d205369676e6564204d6573736167653a0a333200000000815250601c018260001916600019168152602001915050604051809103902092506110af88846114ef565b915081604051808273ffffffffffffffffffffffffffffffffffffffff1673ffffffffffffffffffffffffffffffffffffffff166c0100000000000000000000000002815260140191505060405180910390209050600260009054906101000a900473ffffffffffffffffffffffffffffffffffffffff1673ffffffffffffffffffffffffffffffffffffffff1663d202158d8260036040518363ffffffff167c010000000000000000000000000000000000000000000000000000000002815260040180836000191660001916815260200182815260200192505050602060405180830381600087803b1580156111a657600080fd5b505af11580156111ba573d6000803e3d6000fd5b505050506040513d60208110156111d057600080fd5b81019080805190602001909291905050501561125a577f5637aa6b77cde2de563765b75a65099af73d3bf22cb9d089a64a01777823208e8e8e604051808373ffffffffffffffffffffffffffffffffffffffff1673ffffffffffffffffffffffffffffffffffffffff1681526020018281526020019250505060405180910390a160019b506112d7565b8580600101965050610c25565b7fc1e461cfcaa9ff5efbb053582a325fbfebec1d94ac7e9d9958ee7f74c2b6b5588e8e604051808373ffffffffffffffffffffffffffffffffffffffff1673ffffffffffffffffffffffffffffffffffffffff1681526020018281526020019250505060405180910390a160009b505b505050505050505050505092915050565b600660009054906101000a900473ffffffffffffffffffffffffffffffffffffffff1681565b60046020528060005260406000206000915054906101000a900473ffffffffffffffffffffffffffffffffffffffff1681565b600080600660009054906101000a900473ffffffffffffffffffffffffffffffffffffffff1673ffffffffffffffffffffffffffffffffffffffff166316f91d136040518163ffffffff167c0100000000000000000000000000000000000000000000000000000000028152600401600060405180830381600087803b1580156113ca57600080fd5b505af11580156113de573d6000803e3d6000fd5b505050506040513d6000823e3d601f19601f82011682018060405250602081101561140857600080fd5b81019080805164010000000081111561142057600080fd5b8281019050602081018481111561143657600080fd5b815185602082028301116401000000008211171561145357600080fd5b50509291905050506005908051906020019061147092919061177a565b50600090505b6005805490508110156114c1576114a68360058381548110151561149657fe5b9060005260206000200154610ae1565b156114b457600191506114c6565b8080600101915050611476565b600091505b50919050565b6005818154811015156114db57fe5b906000526020600020016000915090505481565b60008060008060006041875114151561150b57600094506115bd565b6020870151935060408701519250606087015160001a9150601b8260ff16101561153657601b820191505b600186838686604051600081526020016040526040518085600019166000191681526020018460ff1660ff1681526020018360001916600019168152602001826000191660001916815260200194505050505060206040516020810390808403906000865af11580156115ad573d6000803e3d6000fd5b5050506020604051035190508094505b5050505092915050565b6115cf610a8a565b15156115da57600080fd5b6115e381611680565b50565b6115ee610a8a565b15156115f957600080fd5b80600360006101000a81548173ffffffffffffffffffffffffffffffffffffffff021916908373ffffffffffffffffffffffffffffffffffffffff1602179055508073ffffffffffffffffffffffffffffffffffffffff167f1b98cb79e6f73020175fe87333f1b91ad6a881519c0afe30340c2599b2b4bde060405160405180910390a250565b600073ffffffffffffffffffffffffffffffffffffffff168173ffffffffffffffffffffffffffffffffffffffff16141515156116bc57600080fd5b8073ffffffffffffffffffffffffffffffffffffffff166000809054906101000a900473ffffffffffffffffffffffffffffffffffffffff1673ffffffffffffffffffffffffffffffffffffffff167f8be0079c531659141344cd1fd0a4f28419497f9722a3daafe3b4186f6b6457e060405160405180910390a3806000806101000a81548173ffffffffffffffffffffffffffffffffffffffff021916908373ffffffffffffffffffffffffffffffffffffffff16021790555050565b8280548282559060005260206000209081019282156117b6579160200282015b828111156117b557825182559160200191906001019061179a565b5b5090506117c391906117c7565b5090565b6117e991905b808211156117e55760008160009055506001016117cd565b5090565b905600a165627a7a7230582089dd02fa5f1699fb5b107cbaee6eb6fa1221bb44015546c801d420f7e70eaa5b0029",
  "source": "pragma solidity ^0.4.24;\n\nimport \"./ClaimHolder.sol\";\nimport \"./ClaimTypesRegistry.sol\";\nimport \"./ClaimVerifier.sol\";\nimport \"openzeppelin-solidity/contracts/ownership/Ownable.sol\";\n\n\ncontract IdentityRegistry is Ownable, ClaimVerifier {\n\n    //mapping between a user id and the corresponding identity contract\n    mapping(uint256 => ClaimHolder) public identity;\n\n    //Array storing trusted claim types of the services\n    uint256[] public claimTypes;\n\n    ClaimTypesRegistry public typesRegistry;\n\n    event IdentityRegistered(ClaimHolder indexed identity, uint256 indexed index);\n    event IdentityRemoved(ClaimHolder indexed identity, uint256 indexed index);\n    event ClaimTypesRegistrySet(address indexed _claimTypesRegistry);\n    event TrustedIssuersRegistrySet(address indexed _trustedIssuersRegistry);\n    /**\n    * @notice check valid identity (KYC)\n    * @param _identityContract an address of user identity contract (ClaimHolder)\n     */\n    modifier isValidIdentity(ClaimHolder _identityContract) {\n        require(_identityContract != address(0), \"contract address can't be a zero address\");\n        require(checkValidIdentity(_identityContract),  \"Your Claim is not valid for KYC\");\n        _;\n    }\n\n     /**\n    * @notice constructor of the contract\n    * @param _trustedIssuersRegistry the address of TrustedIssuerRegistry\n    * @param _claimTypesRegistry the address of ClaimTypeRegistry\n    */\n    constructor(address _trustedIssuersRegistry, address _claimTypesRegistry) public {\n        issuersRegistry = TrustedIssuersRegistry(_trustedIssuersRegistry);\n        emit TrustedIssuersRegistrySet(_trustedIssuersRegistry);\n        typesRegistry = ClaimTypesRegistry(_claimTypesRegistry);\n        emit ClaimTypesRegistrySet(_claimTypesRegistry);\n    }\n\n    /**\n    * @notice Register an identity contract for user account\n    * @param index an user id\n    * @param _identity The address of the user's identity contract (ClaimHolder)\n    * @return true or false\n    */\n    function registerIdentity(uint256 index, ClaimHolder _identity) isValidIdentity(_identity) public returns (bool) {\n        require(identity[index] == address(0));\n        identity[index] = _identity;\n        emit IdentityRegistered(_identity, index);\n        return true;\n    }\n\n    /**\n    * @notice Remove an identity contract\n    * @param index index an user id that will be remove\n    * @return true or false\n     */\n    function removeIdentity(uint256 index) onlyOwner public returns (bool) {\n        require(identity[index] != address(0));\n        emit IdentityRemoved(identity[index], index);\n        delete identity[index];\n        return true;\n    }\n\n    /**\n    * @notice Set ClaimTypeRegistry\n    * @param _claimTypesRegistry an address of ClaimTypeRegistry\n     */\n    function setClaimTypesRegistry(address _claimTypesRegistry) public onlyOwner {\n        typesRegistry = ClaimTypesRegistry(_claimTypesRegistry);\n        emit ClaimTypesRegistrySet(_claimTypesRegistry);\n    }\n\n    /**\n    * @notice Set TrustedIssuerRegistry\n    * @param _trustedIssuersRegistry an address of TrustedIssuerRegistry\n     */\n    function setTrustedIssuerRegistry(address _trustedIssuersRegistry) public onlyOwner {\n        issuersRegistry = TrustedIssuersRegistry(_trustedIssuersRegistry);\n        emit TrustedIssuersRegistrySet(_trustedIssuersRegistry);\n    }\n\n    /**\n    * @notice Check valid identity contract\n    * @param _identity an address of user\n    * @return true or false\n     */\n    function checkValidIdentity(ClaimHolder _identity) public returns (bool) {\n        claimTypes = typesRegistry.getClaimTypes();\n        for(uint i = 0; i < claimTypes.length; i++) {\n            if(claimIsValid(_identity, claimTypes[i])) {\n                return true;\n            }\n        }\n        return false;\n    }\n}",
  "sourcePath": "/Users/quanth/Documents/DecentralizedTwitter/contracts/Identity/IdentityRegistry.sol",
  "compiler": {
    "name": "solc",
    "version": "0.4.24+commit.e67f0147.Emscripten.clang"
  },
  "schemaVersion": "3.0.16",
  "updatedAt": "2019-11-26T09:09:23.261Z",
  "devdoc": {
    "methods": {
      "checkValidIdentity(address)": {
        "params": {
          "_identity": "an address of user"
        },
        "return": "true or false"
      },
      "claimIsValid(address,uint256)": {
        "params": {
          "_identity": "ClaimHolder contract address",
          "claimType": "type of given claim by ClaimHolder"
        },
        "return": "true or false"
      },
      "getRecoveredAddress(bytes,bytes32)": {
        "params": {
          "dataHash": "hash of data in bytes32",
          "sig": "signed data in bytes32"
        },
        "return": "address of signed data"
      },
      "isOwner()": {
        "return": "true if `msg.sender` is the owner of the contract."
      },
      "owner()": {
        "return": "the address of the owner."
      },
      "registerIdentity(uint256,address)": {
        "params": {
          "_identity": "The address of the user's identity contract (ClaimHolder)",
          "index": "an user id"
        },
        "return": "true or false"
      },
      "removeIdentity(uint256)": {
        "params": {
          "index": "index an user id that will be remove"
        },
        "return": "true or false"
      },
      "renounceOwnership()": {
        "details": "Allows the current owner to relinquish control of the contract."
      },
      "setClaimTypesRegistry(address)": {
        "params": {
          "_claimTypesRegistry": "an address of ClaimTypeRegistry"
        }
      },
      "setTrustedIssuerRegistry(address)": {
        "params": {
          "_trustedIssuersRegistry": "an address of TrustedIssuerRegistry"
        }
      },
      "transferOwnership(address)": {
        "details": "Allows the current owner to transfer control of the contract to a newOwner.",
        "params": {
          "newOwner": "The address to transfer ownership to."
        }
      }
    }
  },
  "userdoc": {
    "methods": {
      "checkValidIdentity(address)": {
        "notice": "Check valid identity contract"
      },
      "claimIsValid(address,uint256)": {
        "notice": "Check valid or invalid of given claim by ClaimHolder"
      },
      "getRecoveredAddress(bytes,bytes32)": {
        "notice": "Get address of signed data"
      },
      "registerIdentity(uint256,address)": {
        "notice": "Register an identity contract for user account"
      },
      "removeIdentity(uint256)": {
        "notice": "Remove an identity contract"
      },
      "renounceOwnership()": {
        "notice": "Renouncing to ownership will leave the contract without an owner. It will not be possible to call the functions with the `onlyOwner` modifier anymore."
      },
      "setClaimTypesRegistry(address)": {
        "notice": "Set ClaimTypeRegistry"
      },
      "setTrustedIssuerRegistry(address)": {
        "notice": "Set TrustedIssuerRegistry"
      }
    }
  }
}