{
  "contractName": "IdentityRegistry",
  "abi": [
    {
      "constant": false,
      "inputs": [],
      "name": "renounceOwnership",
      "outputs": [],
      "payable": false,
      "stateMutability": "nonpayable",
      "type": "function"
    },
    {
      "constant": true,
      "inputs": [],
      "name": "owner",
      "outputs": [
        {
          "name": "",
          "type": "address"
        }
      ],
      "payable": false,
      "stateMutability": "view",
      "type": "function"
    },
    {
      "constant": true,
      "inputs": [],
      "name": "isOwner",
      "outputs": [
        {
          "name": "",
          "type": "bool"
        }
      ],
      "payable": false,
      "stateMutability": "view",
      "type": "function"
    },
    {
      "constant": true,
      "inputs": [
        {
          "name": "_identity",
          "type": "address"
        },
        {
          "name": "claimType",
          "type": "uint256"
        }
      ],
      "name": "claimIsValid",
      "outputs": [
        {
          "name": "claimValid",
          "type": "bool"
        }
      ],
      "payable": false,
      "stateMutability": "view",
      "type": "function"
    },
    {
      "constant": true,
      "inputs": [],
      "name": "typesRegistry",
      "outputs": [
        {
          "name": "",
          "type": "address"
        }
      ],
      "payable": false,
      "stateMutability": "view",
      "type": "function"
    },
    {
      "constant": true,
      "inputs": [
        {
          "name": "",
          "type": "uint256"
        }
      ],
      "name": "identity",
      "outputs": [
        {
          "name": "",
          "type": "address"
        }
      ],
      "payable": false,
      "stateMutability": "view",
      "type": "function"
    },
    {
      "constant": true,
      "inputs": [
        {
          "name": "",
          "type": "uint256"
        }
      ],
      "name": "claimTypes",
      "outputs": [
        {
          "name": "",
          "type": "uint256"
        }
      ],
      "payable": false,
      "stateMutability": "view",
      "type": "function"
    },
    {
      "constant": true,
      "inputs": [
        {
          "name": "sig",
          "type": "bytes"
        },
        {
          "name": "dataHash",
          "type": "bytes32"
        }
      ],
      "name": "getRecoveredAddress",
      "outputs": [
        {
          "name": "addr",
          "type": "address"
        }
      ],
      "payable": false,
      "stateMutability": "view",
      "type": "function"
    },
    {
      "constant": false,
      "inputs": [
        {
          "name": "newOwner",
          "type": "address"
        }
      ],
      "name": "transferOwnership",
      "outputs": [],
      "payable": false,
      "stateMutability": "nonpayable",
      "type": "function"
    },
    {
      "inputs": [
        {
          "name": "_trustedIssuersRegistry",
          "type": "address"
        },
        {
          "name": "_claimTypesRegistry",
          "type": "address"
        }
      ],
      "payable": false,
      "stateMutability": "nonpayable",
      "type": "constructor"
    },
    {
      "anonymous": false,
      "inputs": [
        {
          "indexed": true,
          "name": "identity",
          "type": "address"
        },
        {
          "indexed": true,
          "name": "index",
          "type": "uint256"
        }
      ],
      "name": "IdentityRegistered",
      "type": "event"
    },
    {
      "anonymous": false,
      "inputs": [
        {
          "indexed": true,
          "name": "identity",
          "type": "address"
        },
        {
          "indexed": true,
          "name": "index",
          "type": "uint256"
        }
      ],
      "name": "IdentityRemoved",
      "type": "event"
    },
    {
      "anonymous": false,
      "inputs": [
        {
          "indexed": true,
          "name": "_claimTypesRegistry",
          "type": "address"
        }
      ],
      "name": "ClaimTypesRegistrySet",
      "type": "event"
    },
    {
      "anonymous": false,
      "inputs": [
        {
          "indexed": true,
          "name": "_trustedIssuersRegistry",
          "type": "address"
        }
      ],
      "name": "TrustedIssuersRegistrySet",
      "type": "event"
    },
    {
      "anonymous": false,
      "inputs": [
        {
          "indexed": false,
          "name": "_identity",
          "type": "address"
        },
        {
          "indexed": false,
          "name": "claimType",
          "type": "uint256"
        }
      ],
      "name": "ClaimValid",
      "type": "event"
    },
    {
      "anonymous": false,
      "inputs": [
        {
          "indexed": false,
          "name": "_identity",
          "type": "address"
        },
        {
          "indexed": false,
          "name": "claimType",
          "type": "uint256"
        }
      ],
      "name": "ClaimInvalid",
      "type": "event"
    },
    {
      "anonymous": false,
      "inputs": [
        {
          "indexed": true,
          "name": "previousOwner",
          "type": "address"
        },
        {
          "indexed": true,
          "name": "newOwner",
          "type": "address"
        }
      ],
      "name": "OwnershipTransferred",
      "type": "event"
    },
    {
      "constant": false,
      "inputs": [
        {
          "name": "index",
          "type": "uint256"
        },
        {
          "name": "_identity",
          "type": "address"
        }
      ],
      "name": "registerAccounts",
      "outputs": [
        {
          "name": "",
          "type": "bool"
        }
      ],
      "payable": false,
      "stateMutability": "nonpayable",
      "type": "function"
    },
    {
      "constant": false,
      "inputs": [
        {
          "name": "index",
          "type": "uint256"
        }
      ],
      "name": "removeIdentity",
      "outputs": [
        {
          "name": "",
          "type": "bool"
        }
      ],
      "payable": false,
      "stateMutability": "nonpayable",
      "type": "function"
    },
    {
      "constant": false,
      "inputs": [
        {
          "name": "_claimTypesRegistry",
          "type": "address"
        }
      ],
      "name": "setClaimTypesRegistry",
      "outputs": [],
      "payable": false,
      "stateMutability": "nonpayable",
      "type": "function"
    },
    {
      "constant": false,
      "inputs": [
        {
          "name": "_trustedIssuersRegistry",
          "type": "address"
        }
      ],
      "name": "setTrustedIssuerRegistry",
      "outputs": [],
      "payable": false,
      "stateMutability": "nonpayable",
      "type": "function"
    }
  ],
  "bytecode": "0x608060405234801561001057600080fd5b506040516040806119c48339810180604052810190808051906020019092919080519060200190929190505050336000806101000a81548173ffffffffffffffffffffffffffffffffffffffff021916908373ffffffffffffffffffffffffffffffffffffffff1602179055506000809054906101000a900473ffffffffffffffffffffffffffffffffffffffff1673ffffffffffffffffffffffffffffffffffffffff16600073ffffffffffffffffffffffffffffffffffffffff167f8be0079c531659141344cd1fd0a4f28419497f9722a3daafe3b4186f6b6457e060405160405180910390a381600360006101000a81548173ffffffffffffffffffffffffffffffffffffffff021916908373ffffffffffffffffffffffffffffffffffffffff1602179055508173ffffffffffffffffffffffffffffffffffffffff167f1b98cb79e6f73020175fe87333f1b91ad6a881519c0afe30340c2599b2b4bde060405160405180910390a280600660006101000a81548173ffffffffffffffffffffffffffffffffffffffff021916908373ffffffffffffffffffffffffffffffffffffffff1602179055508073ffffffffffffffffffffffffffffffffffffffff167f19d81f7cb533715237b1db77a43b32bca3f63b44f684cbcd6e321e450eabb4f860405160405180910390a250506117b2806102126000396000f3006080604052600436106100c5576000357c0100000000000000000000000000000000000000000000000000000000900463ffffffff1680631c2d74f2146100ca578063331cca211461010d5780634a26158714610152578063715018a6146101b75780638da5cb5b146101ce5780638f32d59b146102255780639fecd554146102545780639ff04d33146102b9578063ac37eebb14610310578063c1edcdc11461037d578063c3b129e3146103be578063f2fde38b14610475578063f6b4c530146104b8575b600080fd5b3480156100d657600080fd5b5061010b600480360381019080803573ffffffffffffffffffffffffffffffffffffffff1690602001909291905050506104fb565b005b34801561011957600080fd5b5061013860048036038101908080359060200190929190505050610595565b604051808215151515815260200191505060405180910390f35b34801561015e57600080fd5b5061019d60048036038101908080359060200190929190803573ffffffffffffffffffffffffffffffffffffffff1690602001909291905050506106cf565b604051808215151515815260200191505060405180910390f35b3480156101c357600080fd5b506101cc610929565b005b3480156101da57600080fd5b506101e36109fb565b604051808273ffffffffffffffffffffffffffffffffffffffff1673ffffffffffffffffffffffffffffffffffffffff16815260200191505060405180910390f35b34801561023157600080fd5b5061023a610a24565b604051808215151515815260200191505060405180910390f35b34801561026057600080fd5b5061029f600480360381019080803573ffffffffffffffffffffffffffffffffffffffff16906020019092919080359060200190929190505050610a7b565b604051808215151515815260200191505060405180910390f35b3480156102c557600080fd5b506102ce611282565b604051808273ffffffffffffffffffffffffffffffffffffffff1673ffffffffffffffffffffffffffffffffffffffff16815260200191505060405180910390f35b34801561031c57600080fd5b5061033b600480360381019080803590602001909291905050506112a8565b604051808273ffffffffffffffffffffffffffffffffffffffff1673ffffffffffffffffffffffffffffffffffffffff16815260200191505060405180910390f35b34801561038957600080fd5b506103a8600480360381019080803590602001909291905050506112db565b6040518082815260200191505060405180910390f35b3480156103ca57600080fd5b50610433600480360381019080803590602001908201803590602001908080601f016020809104026020016040519081016040528093929190818152602001838380828437820191505050505050919291929080356000191690602001909291905050506112fe565b604051808273ffffffffffffffffffffffffffffffffffffffff1673ffffffffffffffffffffffffffffffffffffffff16815260200191505060405180910390f35b34801561048157600080fd5b506104b6600480360381019080803573ffffffffffffffffffffffffffffffffffffffff1690602001909291905050506113d6565b005b3480156104c457600080fd5b506104f9600480360381019080803573ffffffffffffffffffffffffffffffffffffffff1690602001909291905050506113f5565b005b610503610a24565b151561050e57600080fd5b80600660006101000a81548173ffffffffffffffffffffffffffffffffffffffff021916908373ffffffffffffffffffffffffffffffffffffffff1602179055508073ffffffffffffffffffffffffffffffffffffffff167f19d81f7cb533715237b1db77a43b32bca3f63b44f684cbcd6e321e450eabb4f860405160405180910390a250565b600061059f610a24565b15156105aa57600080fd5b600073ffffffffffffffffffffffffffffffffffffffff166004600084815260200190815260200160002060009054906101000a900473ffffffffffffffffffffffffffffffffffffffff1673ffffffffffffffffffffffffffffffffffffffff161415151561061957600080fd5b816004600084815260200190815260200160002060009054906101000a900473ffffffffffffffffffffffffffffffffffffffff1673ffffffffffffffffffffffffffffffffffffffff167ff06dfe9062e9317cd357560ea667d65a9b032f1a674c04e99653e894e145c8fa60405160405180910390a36004600083815260200190815260200160002060006101000a81549073ffffffffffffffffffffffffffffffffffffffff021916905560019050919050565b600081600073ffffffffffffffffffffffffffffffffffffffff168173ffffffffffffffffffffffffffffffffffffffff161415151561079d576040517f08c379a00000000000000000000000000000000000000000000000000000000081526004018080602001828103825260288152602001807f636f6e747261637420616464726573732063616e27742062652061207a65726f81526020017f206164647265737300000000000000000000000000000000000000000000000081525060400191505060405180910390fd5b6107a68161148f565b151561081a576040517f08c379a000000000000000000000000000000000000000000000000000000000815260040180806020018281038252601f8152602001807f596f757220436c61696d206973206e6f742076616c696420666f72204b59430081525060200191505060405180910390fd5b600073ffffffffffffffffffffffffffffffffffffffff166004600086815260200190815260200160002060009054906101000a900473ffffffffffffffffffffffffffffffffffffffff1673ffffffffffffffffffffffffffffffffffffffff1614151561088857600080fd5b826004600086815260200190815260200160002060006101000a81548173ffffffffffffffffffffffffffffffffffffffff021916908373ffffffffffffffffffffffffffffffffffffffff160217905550838373ffffffffffffffffffffffffffffffffffffffff167f22bfb6218489c201b6ec174e5dd0380b7877b3a2d12eed0542f6b5e8ef712f2860405160405180910390a3600191505092915050565b610931610a24565b151561093c57600080fd5b600073ffffffffffffffffffffffffffffffffffffffff166000809054906101000a900473ffffffffffffffffffffffffffffffffffffffff1673ffffffffffffffffffffffffffffffffffffffff167f8be0079c531659141344cd1fd0a4f28419497f9722a3daafe3b4186f6b6457e060405160405180910390a360008060006101000a81548173ffffffffffffffffffffffffffffffffffffffff021916908373ffffffffffffffffffffffffffffffffffffffff160217905550565b60008060009054906101000a900473ffffffffffffffffffffffffffffffffffffffff16905090565b60008060009054906101000a900473ffffffffffffffffffffffffffffffffffffffff1673ffffffffffffffffffffffffffffffffffffffff163373ffffffffffffffffffffffffffffffffffffffff1614905090565b600080600080606080600080600080600080600360009054906101000a900473ffffffffffffffffffffffffffffffffffffffff1673ffffffffffffffffffffffffffffffffffffffff1663d9dd24c56040518163ffffffff167c0100000000000000000000000000000000000000000000000000000000028152600401600060405180830381600087803b158015610b1357600080fd5b505af1158015610b27573d6000803e3d6000fd5b505050506040513d6000823e3d601f19601f820116820180604052506020811015610b5157600080fd5b810190808051640100000000811115610b6957600080fd5b82810190506020810184811115610b7f57600080fd5b8151856020820283011164010000000082111715610b9c57600080fd5b505092919050505060019080519060200190610bb9929190611714565b50600095505b60018054905086101561120157600360009054906101000a900473ffffffffffffffffffffffffffffffffffffffff1673ffffffffffffffffffffffffffffffffffffffff166391b1fdeb600188815481101515610c1957fe5b90600052602060002001546040518263ffffffff167c010000000000000000000000000000000000000000000000000000000002815260040180828152602001915050602060405180830381600087803b158015610c7657600080fd5b505af1158015610c8a573d6000803e3d6000fd5b505050506040513d6020811015610ca057600080fd5b8101908080519060200190929190505050600260006101000a81548173ffffffffffffffffffffffffffffffffffffffff021916908373ffffffffffffffffffffffffffffffffffffffff160217905550600260009054906101000a900473ffffffffffffffffffffffffffffffffffffffff168d604051808373ffffffffffffffffffffffffffffffffffffffff1673ffffffffffffffffffffffffffffffffffffffff166c0100000000000000000000000002815260140182815260200192505050604051809103902094508d73ffffffffffffffffffffffffffffffffffffffff1663c9100bcb866040518263ffffffff167c0100000000000000000000000000000000000000000000000000000000028152600401808260001916600019168152602001915050600060405180830381600087803b158015610de557600080fd5b505af1158015610df9573d6000803e3d6000fd5b505050506040513d6000823e3d601f19601f8201168201806040525060c0811015610e2357600080fd5b810190808051906020019092919080519060200190929190805190602001909291908051640100000000811115610e5957600080fd5b82810190506020810184811115610e6f57600080fd5b8151856001820283011164010000000082111715610e8c57600080fd5b50509291906020018051640100000000811115610ea857600080fd5b82810190506020810184811115610ebe57600080fd5b8151856001820283011164010000000082111715610edb57600080fd5b50509291906020018051640100000000811115610ef757600080fd5b82810190506020810184811115610f0d57600080fd5b8151856001820283011164010000000082111715610f2a57600080fd5b505092919050505050809b50819c50829d50839e50849f5050505050508d8d88604051808473ffffffffffffffffffffffffffffffffffffffff1673ffffffffffffffffffffffffffffffffffffffff166c0100000000000000000000000002815260140183815260200182805190602001908083835b602083101515610fc65780518252602082019150602081019050602083039250610fa1565b6001836020036101000a0380198251168184511680821785525050505050509050019350505050604051809103902093508360405180807f19457468657265756d205369676e6564204d6573736167653a0a333200000000815250601c0182600019166000191681526020019150506040518091039020925061104988846112fe565b915081604051808273ffffffffffffffffffffffffffffffffffffffff1673ffffffffffffffffffffffffffffffffffffffff166c0100000000000000000000000002815260140191505060405180910390209050600260009054906101000a900473ffffffffffffffffffffffffffffffffffffffff1673ffffffffffffffffffffffffffffffffffffffff1663d202158d8260036040518363ffffffff167c010000000000000000000000000000000000000000000000000000000002815260040180836000191660001916815260200182815260200192505050602060405180830381600087803b15801561114057600080fd5b505af1158015611154573d6000803e3d6000fd5b505050506040513d602081101561116a57600080fd5b8101908080519060200190929190505050156111f4577f5637aa6b77cde2de563765b75a65099af73d3bf22cb9d089a64a01777823208e8e8e604051808373ffffffffffffffffffffffffffffffffffffffff1673ffffffffffffffffffffffffffffffffffffffff1681526020018281526020019250505060405180910390a160019b50611271565b8580600101965050610bbf565b7fc1e461cfcaa9ff5efbb053582a325fbfebec1d94ac7e9d9958ee7f74c2b6b5588e8e604051808373ffffffffffffffffffffffffffffffffffffffff1673ffffffffffffffffffffffffffffffffffffffff1681526020018281526020019250505060405180910390a160009b505b505050505050505050505092915050565b600660009054906101000a900473ffffffffffffffffffffffffffffffffffffffff1681565b60046020528060005260406000206000915054906101000a900473ffffffffffffffffffffffffffffffffffffffff1681565b6005818154811015156112ea57fe5b906000526020600020016000915090505481565b60008060008060006041875114151561131a57600094506113cc565b6020870151935060408701519250606087015160001a9150601b8260ff16101561134557601b820191505b600186838686604051600081526020016040526040518085600019166000191681526020018460ff1660ff1681526020018360001916600019168152602001826000191660001916815260200194505050505060206040516020810390808403906000865af11580156113bc573d6000803e3d6000fd5b5050506020604051035190508094505b5050505092915050565b6113de610a24565b15156113e957600080fd5b6113f28161161a565b50565b6113fd610a24565b151561140857600080fd5b80600360006101000a81548173ffffffffffffffffffffffffffffffffffffffff021916908373ffffffffffffffffffffffffffffffffffffffff1602179055508073ffffffffffffffffffffffffffffffffffffffff167f1b98cb79e6f73020175fe87333f1b91ad6a881519c0afe30340c2599b2b4bde060405160405180910390a250565b600080600660009054906101000a900473ffffffffffffffffffffffffffffffffffffffff1673ffffffffffffffffffffffffffffffffffffffff166316f91d136040518163ffffffff167c0100000000000000000000000000000000000000000000000000000000028152600401600060405180830381600087803b15801561151857600080fd5b505af115801561152c573d6000803e3d6000fd5b505050506040513d6000823e3d601f19601f82011682018060405250602081101561155657600080fd5b81019080805164010000000081111561156e57600080fd5b8281019050602081018481111561158457600080fd5b81518560208202830111640100000000821117156115a157600080fd5b5050929190505050600590805190602001906115be929190611714565b50600090505b60058054905081101561160f576115f4836005838154811015156115e457fe5b9060005260206000200154610a7b565b156116025760019150611614565b80806001019150506115c4565b600091505b50919050565b600073ffffffffffffffffffffffffffffffffffffffff168173ffffffffffffffffffffffffffffffffffffffff161415151561165657600080fd5b8073ffffffffffffffffffffffffffffffffffffffff166000809054906101000a900473ffffffffffffffffffffffffffffffffffffffff1673ffffffffffffffffffffffffffffffffffffffff167f8be0079c531659141344cd1fd0a4f28419497f9722a3daafe3b4186f6b6457e060405160405180910390a3806000806101000a81548173ffffffffffffffffffffffffffffffffffffffff021916908373ffffffffffffffffffffffffffffffffffffffff16021790555050565b828054828255906000526020600020908101928215611750579160200282015b8281111561174f578251825591602001919060010190611734565b5b50905061175d9190611761565b5090565b61178391905b8082111561177f576000816000905550600101611767565b5090565b905600a165627a7a7230582064955b5a7f64121b1ea685358d549f76da90eea6dd76b6468fa32dec9840d28a0029",
  "source": "pragma solidity ^0.4.24;\n\nimport \"./ClaimHolder.sol\";\nimport \"./ClaimTypesRegistry.sol\";\nimport \"./ClaimVerifier.sol\";\nimport \"openzeppelin-solidity/contracts/ownership/Ownable.sol\";\n\n\ncontract IdentityRegistry is Ownable, ClaimVerifier {\n\n    struct User {\n        \n    }\n    //mapping between a user id and the corresponding identity contract\n    mapping(uint256 => ClaimHolder) public identity;\n\n    //Array storing trusted claim types of the services\n    uint256[] public claimTypes;\n\n    ClaimTypesRegistry public typesRegistry;\n\n    event IdentityRegistered(ClaimHolder indexed identity, uint256 indexed index);\n    event IdentityRemoved(ClaimHolder indexed identity, uint256 indexed index);\n    event ClaimTypesRegistrySet(address indexed _claimTypesRegistry);\n    event TrustedIssuersRegistrySet(address indexed _trustedIssuersRegistry);\n    /**\n    * @notice check valid identity (KYC)\n    * @param _identityContract an address of user identity contract (ClaimHolder)\n     */\n    modifier isValidIdentity(ClaimHolder _identityContract) {\n        require(_identityContract != address(0), \"contract address can't be a zero address\");\n        require(checkValidIdentity(_identityContract),  \"Your Claim is not valid for KYC\");\n        _;\n    }\n\n     /**\n    * @notice constructor of the contract\n    * @param _trustedIssuersRegistry the address of TrustedIssuerRegistry\n    * @param _claimTypesRegistry the address of ClaimTypeRegistry\n    */\n    constructor(address _trustedIssuersRegistry, address _claimTypesRegistry) public {\n        issuersRegistry = TrustedIssuersRegistry(_trustedIssuersRegistry);\n        emit TrustedIssuersRegistrySet(_trustedIssuersRegistry);\n        typesRegistry = ClaimTypesRegistry(_claimTypesRegistry);\n        emit ClaimTypesRegistrySet(_claimTypesRegistry);\n    }\n\n    /**\n    * @notice Register an identity contract for user account\n    * @param index an user id\n    * @param _identity The address of the user's identity contract (ClaimHolder)\n    * @return true or false\n    */\n    function registerAccounts(uint256 index, ClaimHolder _identity) isValidIdentity(_identity) public returns (bool) {\n        require(identity[index] == address(0));\n        identity[index] = _identity;\n        emit IdentityRegistered(_identity, index);\n        return true;\n    }\n\n    /**\n    * @notice Remove an identity contract\n    * @param index index an user id that will be remove\n    * @return true or false\n     */\n    function removeIdentity(uint256 index) onlyOwner public returns (bool) {\n        require(identity[index] != address(0));\n        emit IdentityRemoved(identity[index], index);\n        delete identity[index];\n        return true;\n    }\n\n    /**\n    * @notice Set ClaimTypeRegistry\n    * @param _claimTypesRegistry an address of ClaimTypeRegistry\n     */\n    function setClaimTypesRegistry(address _claimTypesRegistry) public onlyOwner {\n        typesRegistry = ClaimTypesRegistry(_claimTypesRegistry);\n        emit ClaimTypesRegistrySet(_claimTypesRegistry);\n    }\n\n    /**\n    * @notice Set TrustedIssuerRegistry\n    * @param _trustedIssuersRegistry an address of TrustedIssuerRegistry\n     */\n    function setTrustedIssuerRegistry(address _trustedIssuersRegistry) public onlyOwner {\n        issuersRegistry = TrustedIssuersRegistry(_trustedIssuersRegistry);\n        emit TrustedIssuersRegistrySet(_trustedIssuersRegistry);\n    }\n\n    /**\n    * @notice Check valid identity contract\n    * @param _identity an address of user\n    * @return true or false\n     */\n    function checkValidIdentity(ClaimHolder _identity) internal returns (bool) {\n        claimTypes = typesRegistry.getClaimTypes();\n        for(uint i = 0; i < claimTypes.length; i++) {\n            if(claimIsValid(_identity, claimTypes[i])) {\n                return true;\n            }\n        }\n        return false;\n    }\n}",
  "sourcePath": "/Users/quanth/Documents/DecentralizedTwitter/contracts/Identity/IdentityRegistry.sol",
  "compiler": {
    "name": "solc",
    "version": "0.4.24+commit.e67f0147.Emscripten.clang"
  },
  "schemaVersion": "3.0.16",
  "updatedAt": "2019-11-25T14:38:12.795Z",
  "devdoc": {
    "methods": {
      "claimIsValid(address,uint256)": {
        "params": {
          "_identity": "ClaimHolder contract address",
          "claimType": "type of given claim by ClaimHolder"
        },
        "return": "true or false"
      },
      "getRecoveredAddress(bytes,bytes32)": {
        "params": {
          "dataHash": "hash of data in bytes32",
          "sig": "signed data in bytes32"
        },
        "return": "address of signed data"
      },
      "isOwner()": {
        "return": "true if `msg.sender` is the owner of the contract."
      },
      "owner()": {
        "return": "the address of the owner."
      },
      "registerAccounts(uint256,address)": {
        "params": {
          "_identity": "The address of the user's identity contract (ClaimHolder)",
          "index": "an user id"
        },
        "return": "true or false"
      },
      "removeIdentity(uint256)": {
        "params": {
          "index": "index an user id that will be remove"
        },
        "return": "true or false"
      },
      "renounceOwnership()": {
        "details": "Allows the current owner to relinquish control of the contract."
      },
      "setClaimTypesRegistry(address)": {
        "params": {
          "_claimTypesRegistry": "an address of ClaimTypeRegistry"
        }
      },
      "setTrustedIssuerRegistry(address)": {
        "params": {
          "_trustedIssuersRegistry": "an address of TrustedIssuerRegistry"
        }
      },
      "transferOwnership(address)": {
        "details": "Allows the current owner to transfer control of the contract to a newOwner.",
        "params": {
          "newOwner": "The address to transfer ownership to."
        }
      }
    }
  },
  "userdoc": {
    "methods": {
      "claimIsValid(address,uint256)": {
        "notice": "Check valid or invalid of given claim by ClaimHolder"
      },
      "getRecoveredAddress(bytes,bytes32)": {
        "notice": "Get address of signed data"
      },
      "registerAccounts(uint256,address)": {
        "notice": "Register an identity contract for user account"
      },
      "removeIdentity(uint256)": {
        "notice": "Remove an identity contract"
      },
      "renounceOwnership()": {
        "notice": "Renouncing to ownership will leave the contract without an owner. It will not be possible to call the functions with the `onlyOwner` modifier anymore."
      },
      "setClaimTypesRegistry(address)": {
        "notice": "Set ClaimTypeRegistry"
      },
      "setTrustedIssuerRegistry(address)": {
        "notice": "Set TrustedIssuerRegistry"
      }
    }
  }
}