{
  "contractName": "KeyHolder",
  "abi": [
    {
      "inputs": [
        {
          "name": "_backUpKey",
          "type": "bytes32"
        }
      ],
      "payable": false,
      "stateMutability": "nonpayable",
      "type": "constructor"
    },
    {
      "anonymous": false,
      "inputs": [
        {
          "indexed": true,
          "name": "executionId",
          "type": "uint256"
        },
        {
          "indexed": true,
          "name": "to",
          "type": "address"
        },
        {
          "indexed": true,
          "name": "value",
          "type": "uint256"
        },
        {
          "indexed": false,
          "name": "data",
          "type": "bytes"
        }
      ],
      "name": "ExecutionFailed",
      "type": "event"
    },
    {
      "anonymous": false,
      "inputs": [
        {
          "indexed": true,
          "name": "key",
          "type": "bytes32"
        },
        {
          "indexed": true,
          "name": "purpose",
          "type": "uint256"
        },
        {
          "indexed": true,
          "name": "keyType",
          "type": "uint256"
        }
      ],
      "name": "KeyAdded",
      "type": "event"
    },
    {
      "anonymous": false,
      "inputs": [
        {
          "indexed": true,
          "name": "key",
          "type": "bytes32"
        },
        {
          "indexed": true,
          "name": "purpose",
          "type": "uint256"
        },
        {
          "indexed": true,
          "name": "keyType",
          "type": "uint256"
        }
      ],
      "name": "KeyRemoved",
      "type": "event"
    },
    {
      "anonymous": false,
      "inputs": [
        {
          "indexed": true,
          "name": "executionId",
          "type": "uint256"
        },
        {
          "indexed": true,
          "name": "to",
          "type": "address"
        },
        {
          "indexed": true,
          "name": "value",
          "type": "uint256"
        },
        {
          "indexed": false,
          "name": "data",
          "type": "bytes"
        }
      ],
      "name": "ExecutionRequested",
      "type": "event"
    },
    {
      "anonymous": false,
      "inputs": [
        {
          "indexed": true,
          "name": "executionId",
          "type": "uint256"
        },
        {
          "indexed": true,
          "name": "to",
          "type": "address"
        },
        {
          "indexed": true,
          "name": "value",
          "type": "uint256"
        },
        {
          "indexed": false,
          "name": "data",
          "type": "bytes"
        }
      ],
      "name": "Executed",
      "type": "event"
    },
    {
      "anonymous": false,
      "inputs": [
        {
          "indexed": true,
          "name": "executionId",
          "type": "uint256"
        },
        {
          "indexed": false,
          "name": "approved",
          "type": "bool"
        }
      ],
      "name": "Approved",
      "type": "event"
    },
    {
      "constant": true,
      "inputs": [
        {
          "name": "_key",
          "type": "bytes32"
        }
      ],
      "name": "getKey",
      "outputs": [
        {
          "name": "purpose",
          "type": "uint256"
        },
        {
          "name": "keyType",
          "type": "uint256"
        },
        {
          "name": "key",
          "type": "bytes32"
        }
      ],
      "payable": false,
      "stateMutability": "view",
      "type": "function"
    },
    {
      "constant": true,
      "inputs": [
        {
          "name": "_key",
          "type": "bytes32"
        }
      ],
      "name": "getKeyPurpose",
      "outputs": [
        {
          "name": "purpose",
          "type": "uint256"
        }
      ],
      "payable": false,
      "stateMutability": "view",
      "type": "function"
    },
    {
      "constant": true,
      "inputs": [
        {
          "name": "_purpose",
          "type": "uint256"
        }
      ],
      "name": "getKeysByPurpose",
      "outputs": [
        {
          "name": "_keys",
          "type": "bytes32[]"
        }
      ],
      "payable": false,
      "stateMutability": "view",
      "type": "function"
    },
    {
      "constant": false,
      "inputs": [
        {
          "name": "_key",
          "type": "bytes32"
        },
        {
          "name": "_purpose",
          "type": "uint256"
        },
        {
          "name": "_type",
          "type": "uint256"
        }
      ],
      "name": "addKey",
      "outputs": [
        {
          "name": "success",
          "type": "bool"
        }
      ],
      "payable": false,
      "stateMutability": "nonpayable",
      "type": "function"
    },
    {
      "constant": false,
      "inputs": [
        {
          "name": "_id",
          "type": "uint256"
        },
        {
          "name": "_approve",
          "type": "bool"
        }
      ],
      "name": "approve",
      "outputs": [
        {
          "name": "success",
          "type": "bool"
        }
      ],
      "payable": false,
      "stateMutability": "nonpayable",
      "type": "function"
    },
    {
      "constant": false,
      "inputs": [
        {
          "name": "_to",
          "type": "address"
        },
        {
          "name": "_value",
          "type": "uint256"
        },
        {
          "name": "_data",
          "type": "bytes"
        }
      ],
      "name": "execute",
      "outputs": [
        {
          "name": "executionId",
          "type": "uint256"
        }
      ],
      "payable": true,
      "stateMutability": "payable",
      "type": "function"
    },
    {
      "constant": false,
      "inputs": [
        {
          "name": "_key",
          "type": "bytes32"
        }
      ],
      "name": "removeKey",
      "outputs": [
        {
          "name": "success",
          "type": "bool"
        }
      ],
      "payable": false,
      "stateMutability": "nonpayable",
      "type": "function"
    },
    {
      "constant": true,
      "inputs": [
        {
          "name": "_key",
          "type": "bytes32"
        },
        {
          "name": "_purpose",
          "type": "uint256"
        }
      ],
      "name": "keyHasPurpose",
      "outputs": [
        {
          "name": "result",
          "type": "bool"
        }
      ],
      "payable": false,
      "stateMutability": "view",
      "type": "function"
    }
  ],
  "bytecode": "0x608060405234801561001057600080fd5b5060405160208061171383398101806040528101908080519060200190929190505050600033604051808273ffffffffffffffffffffffffffffffffffffffff1673ffffffffffffffffffffffffffffffffffffffff166c0100000000000000000000000002815260140191505060405180910390209050806001600083600019166000191681526020019081526020016000206002018160001916905550600180600083600019166000191681526020019081526020016000206000018190555060018060008360001916600019168152602001908152602001600020600101819055506002600060018152602001908152602001600020819080600181540180825580915050906001820390600052602060002001600090919290919091509060001916905550600180600083600019166000191681526020019081526020016000206000015482600019167f480000bb1edad8ca1470381cc334b1917fbd51c6531f3a623ea8e0ec7e38a6e960405160405180910390a4816001600084600019166000191681526020019081526020016000206002018160001916905550600180600084600019166000191681526020019081526020016000206000018190555060018060008460001916600019168152602001908152602001600020600101819055506002600060018152602001908152602001600020829080600181540180825580915050906001820390600052602060002001600090919290919091509060001916905550600180600084600019166000191681526020019081526020016000206000015483600019167f480000bb1edad8ca1470381cc334b1917fbd51c6531f3a623ea8e0ec7e38a6e960405160405180910390a450506114768061029d6000396000f30060806040526004361061008e576000357c0100000000000000000000000000000000000000000000000000000000900463ffffffff168063032c1a8a1461009357806312aaac70146100d85780631d38124014610133578063747442d314610190578063862642f5146101e15780639010f7261461022a578063b61d27f6146102ac578063d202158d14610346575b600080fd5b34801561009f57600080fd5b506100c26004803603810190808035600019169060200190929190505050610399565b6040518082815260200191505060405180910390f35b3480156100e457600080fd5b5061010760048036038101908080356000191690602001909291905050506103c1565b604051808481526020018381526020018260001916600019168152602001935050505060405180910390f35b34801561013f57600080fd5b5061017660048036038101908080356000191690602001909291908035906020019092919080359060200190929190505050610430565b604051808215151515815260200191505060405180910390f35b34801561019c57600080fd5b506101c7600480360381019080803590602001909291908035151590602001909291905050506106e9565b604051808215151515815260200191505060405180910390f35b3480156101ed57600080fd5b506102106004803603810190808035600019169060200190929190505050610c14565b604051808215151515815260200191505060405180910390f35b34801561023657600080fd5b5061025560048036038101908080359060200190929190505050610f9a565b6040518080602001828103825283818151815260200191508051906020019060200280838360005b8381101561029857808201518184015260208101905061027d565b505050509050019250505060405180910390f35b610330600480360381019080803573ffffffffffffffffffffffffffffffffffffffff16906020019092919080359060200190929190803590602001908201803590602001908080601f0160208091040260200160405190810160405280939291908181526020018383808284378201915050505050509192919290505050611009565b6040518082815260200191505060405180910390f35b34801561035257600080fd5b5061037f6004803603810190808035600019169060200190929190803590602001909291905050506112eb565b604051808215151515815260200191505060405180910390f35b6000600160008360001916600019168152602001908152602001600020600001549050919050565b60008060006001600085600019166000191681526020019081526020016000206000015460016000866000191660001916815260200190815260200160002060010154600160008760001916600019168152602001908152602001600020600201549250925092509193909250565b600083600019166001600086600019166000191681526020019081526020016000206002015460001916141515156104d0576040517f08c379a00000000000000000000000000000000000000000000000000000000081526004018080602001828103825260138152602001807f4b657920616c726561647920657864697374730000000000000000000000000081525060200191505060405180910390fd5b3073ffffffffffffffffffffffffffffffffffffffff163373ffffffffffffffffffffffffffffffffffffffff161415156105fb5761056033604051808273ffffffffffffffffffffffffffffffffffffffff1673ffffffffffffffffffffffffffffffffffffffff166c01000000000000000000000000028152601401915050604051809103902060016112eb565b15156105fa576040517f08c379a00000000000000000000000000000000000000000000000000000000081526004018080602001828103825260238152602001807f53656e64657220646f6573206e6f742068617665206d616e6167656d656e742081526020017f6b6579000000000000000000000000000000000000000000000000000000000081525060400191505060405180910390fd5b5b8360016000866000191660001916815260200190815260200160002060020181600019169055508260016000866000191660001916815260200190815260200160002060000181905550816001600086600019166000191681526020019081526020016000206001018190555060026000848152602001908152602001600020849080600181540180825580915050906001820390600052602060002001600090919290919091509060001916905550818385600019167f480000bb1edad8ca1470381cc334b1917fbd51c6531f3a623ea8e0ec7e38a6e960405160405180910390a4600190509392505050565b600061074633604051808273ffffffffffffffffffffffffffffffffffffffff1673ffffffffffffffffffffffffffffffffffffffff166c01000000000000000000000000028152601401915050604051809103902060026112eb565b15156107ba576040517f08c379a000000000000000000000000000000000000000000000000000000000815260040180806020018281038252601f8152602001807f53656e64657220646f6573206e6f74206861766520616374696f6e206b65790081525060200191505060405180910390fd5b827fb3932da477fe5d6c8ff2eafef050c0f3a1af18fc07121001482600f36f3715d883604051808215151515815260200191505060405180910390a2600115158215151415610bda5760016003600085815260200190815260200160002060030160006101000a81548160ff0219169083151502179055506003600084815260200190815260200160002060000160009054906101000a900473ffffffffffffffffffffffffffffffffffffffff1673ffffffffffffffffffffffffffffffffffffffff16600360008581526020019081526020016000206001015460036000868152602001908152602001600020600201600060405180838054600181600116156101000203166002900480156109135780601f106108e857610100808354040283529160200191610913565b820191906000526020600020905b8154815290600101906020018083116108f657829003601f168201915b50508260ff1681526020019250505060006040518083038185875af19250505090508015610aa25760016003600085815260200190815260200160002060030160016101000a81548160ff02191690831515021790555060036000848152602001908152602001600020600101546003600085815260200190815260200160002060000160009054906101000a900473ffffffffffffffffffffffffffffffffffffffff1673ffffffffffffffffffffffffffffffffffffffff16847f1f920dbda597d7bf95035464170fa58d0a4b57f13a1c315ace6793b9f63688b8600360008881526020019081526020016000206002016040518080602001828103825283818154600181600116156101000203166002900481526020019150805460018160011615610100020316600290048015610a8f5780601f10610a6457610100808354040283529160200191610a8f565b820191906000526020600020905b815481529060010190602001808311610a7257829003601f168201915b50509250505060405180910390a4610c0e565b60036000848152602001908152602001600020600101546003600085815260200190815260200160002060000160009054906101000a900473ffffffffffffffffffffffffffffffffffffffff1673ffffffffffffffffffffffffffffffffffffffff16847fe10c49d9f7c71da23262367013434763cfdb2332267641728d25cd712c5c6a68600360008881526020019081526020016000206002016040518080602001828103825283818154600181600116156101000203166002900481526020019150805460018160011615610100020316600290048015610bc75780601f10610b9c57610100808354040283529160200191610bc7565b820191906000526020600020905b815481529060010190602001808311610baa57829003601f168201915b50509250505060405180910390a4610c0e565b60006003600085815260200190815260200160002060030160006101000a81548160ff021916908315150217905550600190505b92915050565b600080600083600019166001600086600019166000191681526020019081526020016000206002015460001916141515610cb6576040517f08c379a000000000000000000000000000000000000000000000000000000000815260040180806020018281038252600b8152602001807f4e6f2073756368206b657900000000000000000000000000000000000000000081525060200191505060405180910390fd5b3073ffffffffffffffffffffffffffffffffffffffff163373ffffffffffffffffffffffffffffffffffffffff16141515610de157610d4633604051808273ffffffffffffffffffffffffffffffffffffffff1673ffffffffffffffffffffffffffffffffffffffff166c01000000000000000000000000028152601401915050604051809103902060016112eb565b1515610de0576040517f08c379a00000000000000000000000000000000000000000000000000000000081526004018080602001828103825260238152602001807f53656e64657220646f6573206e6f742068617665206d616e6167656d656e742081526020017f6b6579000000000000000000000000000000000000000000000000000000000081525060400191505060405180910390fd5b5b600160008560001916600019168152602001908152602001600020600101546001600086600019166000191681526020019081526020016000206000015460016000876000191660001916815260200190815260200160002060020154600019167f585a4aef50f8267a92b32412b331b20f7f8b96f2245b253b9cc50dcc621d339760405160405180910390a4600260006001600087600019166000191681526020019081526020016000206000015481526020019081526020016000209150600090505b8180549050811015610f595783600019168282815481101515610ec557fe5b9060005260206000200154600019161415610f4c578181815481101515610ee857fe5b9060005260206000200160009055816001838054905003815481101515610f0b57fe5b90600052602060002001548282815481101515610f2457fe5b90600052602060002001816000191690555081805480919060019003610f4a9190611354565b505b8080600101915050610ea6565b600160008560001916600019168152602001908152602001600020600080820160009055600182016000905560028201600090555050600192505050919050565b606060026000838152602001908152602001600020805480602002602001604051908101604052809291908181526020018280548015610ffd57602002820191906000526020600020905b81546000191681526020019060010190808311610fe5575b50505050509050919050565b6000600360008054815260200190815260200160002060030160019054906101000a900460ff161515156110a5576040517f08c379a00000000000000000000000000000000000000000000000000000000081526004018080602001828103825260108152602001807f416c72656164792065786563757465640000000000000000000000000000000081525060200191505060405180910390fd5b83600360008054815260200190815260200160002060000160006101000a81548173ffffffffffffffffffffffffffffffffffffffff021916908373ffffffffffffffffffffffffffffffffffffffff160217905550826003600080548152602001908152602001600020600101819055508160036000805481526020019081526020016000206002019080519060200190611142929190611380565b50828473ffffffffffffffffffffffffffffffffffffffff166000547f8afcfabcb00e47a53a8fc3e9f23ff47ee1926194bb1350dd007c50b412a6cee8856040518080602001828103825283818151815260200191508051906020019080838360005b838110156111c05780820151818401526020810190506111a5565b50505050905090810190601f1680156111ed5780820380516001836020036101000a031916815260200191505b509250505060405180910390a461125533604051808273ffffffffffffffffffffffffffffffffffffffff1673ffffffffffffffffffffffffffffffffffffffff166c01000000000000000000000000028152601401915050604051809103902060016112eb565b806112b757506112b633604051808273ffffffffffffffffffffffffffffffffffffffff1673ffffffffffffffffffffffffffffffffffffffff166c01000000000000000000000000028152601401915050604051809103902060026112eb565b5b156112cb576112c960005460016106e9565b505b600080815480929190600101919050555060016000540390509392505050565b600080600060010260016000866000191660001916815260200190815260200160002060020154600019161415611325576000915061134d565b8260016000866000191660001916815260200190815260200160002060000154111590508091505b5092915050565b81548183558181111561137b5781836000526020600020918201910161137a9190611400565b5b505050565b828054600181600116156101000203166002900490600052602060002090601f016020900481019282601f106113c157805160ff19168380011785556113ef565b828001600101855582156113ef579182015b828111156113ee5782518255916020019190600101906113d3565b5b5090506113fc9190611425565b5090565b61142291905b8082111561141e576000816000905550600101611406565b5090565b90565b61144791905b8082111561144357600081600090555060010161142b565b5090565b905600a165627a7a723058201af4178fbc7cc64f7b043775534dcffe4dbe101139fda379353d70975da034ed0029",
  "source": "pragma solidity ^0.4.24;\n\nimport \"./ERC725.sol\";\n\ncontract KeyHolder is ERC725 {\n    uint256 executionNonce;\n\n    struct Execution {\n        address to;\n        uint256 value;\n        bytes data;\n        bool approved;\n        bool executed;\n    }\n\n    mapping(bytes32 => Key) keys;\n    mapping(uint256 => bytes32[]) keysByPurpose;\n    mapping(uint256 => Execution) executions;\n\n    event ExecutionFailed(uint256 indexed executionId, address indexed to, uint256 indexed value, bytes data);\n\n    constructor(bytes32 _backUpKey) public {\n        bytes32 _key = keccak256(msg.sender);\n        keys[_key].key = _key;\n        keys[_key].purpose = 1;\n        keys[_key].keyType = 1;\n        keysByPurpose[1].push(_key);\n        emit KeyAdded(_key, keys[_key].purpose, 1);\n\n        keys[_backUpKey].key = _backUpKey;\n        keys[_backUpKey].purpose = 1;\n        keys[_backUpKey].keyType = 1;\n        keysByPurpose[1].push(_backUpKey);\n        emit KeyAdded(_backUpKey, keys[_backUpKey].purpose, 1);\n    }\n\n    /**\n    * @notice Implementation of the getKey function from the ERC-725 standard\n    *\n    * @param _key The public key.  for non-hex and long keys, its the Keccak256 hash of the key\n    *\n    * @return Returns the full key data, if present in the identity.\n    */\n\n    function getKey(bytes32 _key) public view returns (uint256 purpose, uint256 keyType, bytes32 key) {\n        return (keys[_key].purpose, keys[_key].keyType, keys[_key].key);\n    }\n\n    /**\n    * @notice gets the purpose of a key\n    *\n    * @param _key The public key.  for non-hex and long keys, its the Keccak256 hash of the key\n    *\n    * @return Returns the purpose of the specified key\n    */\n\n    function getKeyPurpose(bytes32 _key) public view returns (uint256 purpose) {\n        return (keys[_key].purpose);\n    }\n\n    /**\n    * @notice gets all the keys with a specific purpose from an identity\n    *\n    * @param _purpose a uint256[] Array of the key types, like 1 = MANAGEMENT, 2 = ACTION, 3 = CLAIM, 4 = ENCRYPTION\n    *\n    * @return Returns an array of public key bytes32 hold by this identity and having the specified purpose\n    */\n\n    function getKeysByPurpose(uint256 _purpose) public view returns (bytes32[] memory _keys) {\n        return keysByPurpose[_purpose];\n    }\n\n    /**\n    * @notice implementation of the addKey function of the ERC-725 standard\n    * Adds a _key to the identity. The _purpose specifies the purpose of key. Initially we propose four purposes:\n    * 1: MANAGEMENT keys, which can manage the identity\n    * 2: ACTION keys, which perform actions in this identities name (signing, logins, transactions, etc.)\n    * 3: CLAIM signer keys, used to sign claims on other identities which need to be revokable.\n    * 4: ENCRYPTION keys, used to encrypt data e.g. hold in claims.\n    * MUST only be done by keys of purpose 1, or the identity itself.\n    * If its the identity itself, the approval process will determine its approval.\n    *\n    * @param _key keccak256 representation of an ethereum address\n    * @param _type type of key used, which would be a uint256 for different key types. e.g. 1 = ECDSA, 2 = RSA, etc.\n    * @param _purpose a uint256[] Array of the key types, like 1 = MANAGEMENT, 2 = ACTION, 3 = CLAIM, 4 = ENCRYPTION\n    *\n    * @return Returns TRUE if the addition was successful and FALSE if not\n    */\n\n    function addKey(bytes32 _key, uint256 _purpose, uint256 _type) public returns (bool success) {\n        require(keys[_key].key != _key, \"Key already exdists\"); // Key should not already exist\n        if (msg.sender != address(this)) {\n            require(keyHasPurpose(keccak256(msg.sender), 1), \"Sender does not have management key\"); // Sender has MANAGEMENT_KEY\n        }\n\n        keys[_key].key = _key;\n        keys[_key].purpose = _purpose;\n        keys[_key].keyType = _type;\n\n        keysByPurpose[_purpose].push(_key);\n\n        emit KeyAdded(_key, _purpose, _type);\n\n        return true;\n    }\n\n    function approve(uint256 _id, bool _approve) public returns (bool success) {\n        require(keyHasPurpose(keccak256(msg.sender), 2), \"Sender does not have action key\");\n\n        emit Approved(_id, _approve);\n\n        if (_approve == true) {\n            executions[_id].approved = true;\n            success = executions[_id].to.call.value(executions[_id].value)(executions[_id].data, 0);\n            if (success) {\n                executions[_id].executed = true;\n                emit Executed(_id, executions[_id].to, executions[_id].value, executions[_id].data);\n                return;\n            } else {\n                emit ExecutionFailed(_id, executions[_id].to, executions[_id].value, executions[_id].data);\n                return;\n            }\n        } else {\n            executions[_id].approved = false;\n        }\n        return true;\n    }\n\n    function execute(address _to, uint256 _value, bytes memory _data) public payable returns (uint256 executionId) {\n        require(!executions[executionNonce].executed, \"Already executed\");\n        executions[executionNonce].to = _to;\n        executions[executionNonce].value = _value;\n        executions[executionNonce].data = _data;\n\n        emit ExecutionRequested(executionNonce, _to, _value, _data);\n\n        if (keyHasPurpose(keccak256(msg.sender), 1) || keyHasPurpose(keccak256(msg.sender), 2)) {\n            approve(executionNonce, true);\n        }\n\n        executionNonce++;\n        return executionNonce - 1;\n    }\n\n    function removeKey(bytes32 _key) public returns (bool success) {\n        require(keys[_key].key == _key, \"No such key\");\n        if (msg.sender != address(this)) {\n            require(keyHasPurpose(keccak256(msg.sender), 1), \"Sender does not have management key\"); // Sender has MANAGEMENT_KEY\n        }\n        emit KeyRemoved(keys[_key].key, keys[_key].purpose, keys[_key].keyType);\n\n        /* uint index;\n        (index,) = keysByPurpose[keys[_key].purpose.indexOf(_key);\n        keysByPurpose[keys[_key].purpose.removeByIndex(index); */\n\n        bytes32[] keyList = keysByPurpose[keys[_key].purpose];\n\n        for (uint i = 0; i < keyList.length; i++) {\n            if (keyList[i] == _key) {\n                delete keyList[i];\n                keyList[i] = keyList[keyList.length - 1];\n                keyList.length--;\n            }\n        }\n\n        delete keys[_key];\n\n        return true;\n    }\n\n    function keyHasPurpose(bytes32 _key, uint256 _purpose) public view returns (bool result) {\n        bool isThere;\n        if (keys[_key].key == 0) return false;\n        isThere = keys[_key].purpose <= _purpose;\n        return isThere;\n    }\n}",
  "sourcePath": "/Users/quanth/Documents/DecentralizedTwitter/contracts/Identity/KeyHolder.sol",
  "compiler": {
    "name": "solc",
    "version": "0.4.24+commit.e67f0147.Emscripten.clang"
  },
  "schemaVersion": "3.0.16",
  "updatedAt": "2019-11-25T08:55:44.228Z",
  "devdoc": {
    "methods": {
      "addKey(bytes32,uint256,uint256)": {
        "params": {
          "_key": "keccak256 representation of an ethereum address",
          "_purpose": "a uint256[] Array of the key types, like 1 = MANAGEMENT, 2 = ACTION, 3 = CLAIM, 4 = ENCRYPTION",
          "_type": "type of key used, which would be a uint256 for different key types. e.g. 1 = ECDSA, 2 = RSA, etc."
        },
        "return": "Returns TRUE if the addition was successful and FALSE if not"
      },
      "getKey(bytes32)": {
        "params": {
          "_key": "The public key.  for non-hex and long keys, its the Keccak256 hash of the key"
        },
        "return": "Returns the full key data, if present in the identity."
      },
      "getKeyPurpose(bytes32)": {
        "params": {
          "_key": "The public key.  for non-hex and long keys, its the Keccak256 hash of the key"
        },
        "return": "Returns the purpose of the specified key"
      },
      "getKeysByPurpose(uint256)": {
        "params": {
          "_purpose": "a uint256[] Array of the key types, like 1 = MANAGEMENT, 2 = ACTION, 3 = CLAIM, 4 = ENCRYPTION"
        },
        "return": "Returns an array of public key bytes32 hold by this identity and having the specified purpose"
      }
    }
  },
  "userdoc": {
    "methods": {
      "addKey(bytes32,uint256,uint256)": {
        "notice": "implementation of the addKey function of the ERC-725 standard Adds a _key to the identity. The _purpose specifies the purpose of key. Initially we propose four purposes: 1: MANAGEMENT keys, which can manage the identity 2: ACTION keys, which perform actions in this identities name (signing, logins, transactions, etc.) 3: CLAIM signer keys, used to sign claims on other identities which need to be revokable. 4: ENCRYPTION keys, used to encrypt data e.g. hold in claims. MUST only be done by keys of purpose 1, or the identity itself. If its the identity itself, the approval process will determine its approval."
      },
      "getKey(bytes32)": {
        "notice": "Implementation of the getKey function from the ERC-725 standard"
      },
      "getKeyPurpose(bytes32)": {
        "notice": "gets the purpose of a key"
      },
      "getKeysByPurpose(uint256)": {
        "notice": "gets all the keys with a specific purpose from an identity"
      }
    }
  }
}