{
  "contractName": "TrustedIssuersRegistry",
  "abi": [
    {
      "constant": false,
      "inputs": [],
      "name": "renounceOwnership",
      "outputs": [],
      "payable": false,
      "stateMutability": "nonpayable",
      "type": "function"
    },
    {
      "constant": true,
      "inputs": [],
      "name": "owner",
      "outputs": [
        {
          "name": "",
          "type": "address"
        }
      ],
      "payable": false,
      "stateMutability": "view",
      "type": "function"
    },
    {
      "constant": true,
      "inputs": [],
      "name": "isOwner",
      "outputs": [
        {
          "name": "",
          "type": "bool"
        }
      ],
      "payable": false,
      "stateMutability": "view",
      "type": "function"
    },
    {
      "constant": true,
      "inputs": [
        {
          "name": "",
          "type": "address"
        }
      ],
      "name": "isTrustedIssuers",
      "outputs": [
        {
          "name": "",
          "type": "bool"
        }
      ],
      "payable": false,
      "stateMutability": "view",
      "type": "function"
    },
    {
      "constant": false,
      "inputs": [
        {
          "name": "newOwner",
          "type": "address"
        }
      ],
      "name": "transferOwnership",
      "outputs": [],
      "payable": false,
      "stateMutability": "nonpayable",
      "type": "function"
    },
    {
      "anonymous": false,
      "inputs": [
        {
          "indexed": true,
          "name": "index",
          "type": "uint256"
        },
        {
          "indexed": true,
          "name": "trustedIssuer",
          "type": "address"
        }
      ],
      "name": "TrustedIssuerAdded",
      "type": "event"
    },
    {
      "anonymous": false,
      "inputs": [
        {
          "indexed": true,
          "name": "ndex",
          "type": "uint256"
        },
        {
          "indexed": true,
          "name": "trustedIssuer",
          "type": "address"
        }
      ],
      "name": "TrustedIssuerRemoved",
      "type": "event"
    },
    {
      "anonymous": false,
      "inputs": [
        {
          "indexed": true,
          "name": "index",
          "type": "uint256"
        },
        {
          "indexed": true,
          "name": "oldTrustedIssuer",
          "type": "address"
        },
        {
          "indexed": true,
          "name": "newTrustedIssuer",
          "type": "address"
        }
      ],
      "name": "TrustedIssuerUpdated",
      "type": "event"
    },
    {
      "anonymous": false,
      "inputs": [
        {
          "indexed": true,
          "name": "previousOwner",
          "type": "address"
        },
        {
          "indexed": true,
          "name": "newOwner",
          "type": "address"
        }
      ],
      "name": "OwnershipTransferred",
      "type": "event"
    },
    {
      "constant": false,
      "inputs": [
        {
          "name": "_trustedIssuer",
          "type": "address"
        },
        {
          "name": "index",
          "type": "uint256"
        }
      ],
      "name": "addTrustedIssuer",
      "outputs": [],
      "payable": false,
      "stateMutability": "nonpayable",
      "type": "function"
    },
    {
      "constant": false,
      "inputs": [
        {
          "name": "index",
          "type": "uint256"
        }
      ],
      "name": "removeTrustedIssuer",
      "outputs": [],
      "payable": false,
      "stateMutability": "nonpayable",
      "type": "function"
    },
    {
      "constant": true,
      "inputs": [],
      "name": "getTrustedIssuers",
      "outputs": [
        {
          "name": "",
          "type": "uint256[]"
        }
      ],
      "payable": false,
      "stateMutability": "view",
      "type": "function"
    },
    {
      "constant": true,
      "inputs": [
        {
          "name": "index",
          "type": "uint256"
        }
      ],
      "name": "getTrustedIssuer",
      "outputs": [
        {
          "name": "",
          "type": "address"
        }
      ],
      "payable": false,
      "stateMutability": "view",
      "type": "function"
    },
    {
      "constant": false,
      "inputs": [
        {
          "name": "index",
          "type": "uint256"
        },
        {
          "name": "_newTrustedIssuer",
          "type": "address"
        }
      ],
      "name": "updateIssuerContract",
      "outputs": [],
      "payable": false,
      "stateMutability": "nonpayable",
      "type": "function"
    },
    {
      "constant": false,
      "inputs": [
        {
          "name": "_trustedIssuerIdentity",
          "type": "address"
        }
      ],
      "name": "checkIsTrustedIssuer",
      "outputs": [
        {
          "name": "",
          "type": "bool"
        }
      ],
      "payable": false,
      "stateMutability": "nonpayable",
      "type": "function"
    }
  ],
  "bytecode": "0x6080604052336000806101000a81548173ffffffffffffffffffffffffffffffffffffffff021916908373ffffffffffffffffffffffffffffffffffffffff1602179055506000809054906101000a900473ffffffffffffffffffffffffffffffffffffffff1673ffffffffffffffffffffffffffffffffffffffff16600073ffffffffffffffffffffffffffffffffffffffff167f8be0079c531659141344cd1fd0a4f28419497f9722a3daafe3b4186f6b6457e060405160405180910390a361127e806100cf6000396000f3006080604052600436106100af576000357c0100000000000000000000000000000000000000000000000000000000900463ffffffff1680636ca51bfc146100b4578063715018a6146100e15780637d1ef9a0146100f85780638da5cb5b146101535780638f32d59b146101aa57806391b1fdeb146101d9578063a779dee914610246578063be8c1fa1146102a1578063d2cd1215146102ee578063d9dd24c51461033b578063f2fde38b146103a7575b600080fd5b3480156100c057600080fd5b506100df600480360381019080803590602001909291905050506103ea565b005b3480156100ed57600080fd5b506100f66106fa565b005b34801561010457600080fd5b50610139600480360381019080803573ffffffffffffffffffffffffffffffffffffffff1690602001909291905050506107cc565b604051808215151515815260200191505060405180910390f35b34801561015f57600080fd5b50610168610822565b604051808273ffffffffffffffffffffffffffffffffffffffff1673ffffffffffffffffffffffffffffffffffffffff16815260200191505060405180910390f35b3480156101b657600080fd5b506101bf61084b565b604051808215151515815260200191505060405180910390f35b3480156101e557600080fd5b50610204600480360381019080803590602001909291905050506108a2565b604051808273ffffffffffffffffffffffffffffffffffffffff1673ffffffffffffffffffffffffffffffffffffffff16815260200191505060405180910390f35b34801561025257600080fd5b50610287600480360381019080803573ffffffffffffffffffffffffffffffffffffffff1690602001909291905050506109c5565b604051808215151515815260200191505060405180910390f35b3480156102ad57600080fd5b506102ec60048036038101908080359060200190929190803573ffffffffffffffffffffffffffffffffffffffff1690602001909291905050506109e5565b005b3480156102fa57600080fd5b50610339600480360381019080803573ffffffffffffffffffffffffffffffffffffffff16906020019092919080359060200190929190505050610cda565b005b34801561034757600080fd5b50610350611090565b6040518080602001828103825283818151815260200191508051906020019060200280838360005b83811015610393578082015181840152602081019050610378565b505050509050019250505060405180910390f35b3480156103b357600080fd5b506103e8600480360381019080803573ffffffffffffffffffffffffffffffffffffffff1690602001909291905050506110e8565b005b6000806103f561084b565b151561040057600080fd5b60008311151561040f57600080fd5b600073ffffffffffffffffffffffffffffffffffffffff166001600085815260200190815260200160002060009054906101000a900473ffffffffffffffffffffffffffffffffffffffff1673ffffffffffffffffffffffffffffffffffffffff16141515156104e7576040517f08c379a00000000000000000000000000000000000000000000000000000000081526004018080602001828103825260158152602001807f4e6f20737563682069737375657220657869737473000000000000000000000081525060200191505060405180910390fd5b6000600260006001600087815260200190815260200160002060009054906101000a900473ffffffffffffffffffffffffffffffffffffffff1673ffffffffffffffffffffffffffffffffffffffff1673ffffffffffffffffffffffffffffffffffffffff16815260200190815260200160002060006101000a81548160ff0219169083151502179055506001600084815260200190815260200160002060006101000a81549073ffffffffffffffffffffffffffffffffffffffff02191690556001600084815260200190815260200160002060009054906101000a900473ffffffffffffffffffffffffffffffffffffffff1673ffffffffffffffffffffffffffffffffffffffff16837f1d5379ff490f665019e8adb8c9ebd4763b4f4c2fd3738741b07af264c1eedc3e60405160405180910390a36003805490509150600090505b818110156106f4578260038281548110151561064457fe5b906000526020600020015414156106e75760038181548110151561066457fe5b906000526020600020016000905560036001830381548110151561068457fe5b906000526020600020015460038281548110151561069e57fe5b90600052602060002001819055506003600183038154811015156106be57fe5b906000526020600020016000905560038054809190600190036106e19190611201565b506106f5565b808060010191505061062c565b5b505050565b61070261084b565b151561070d57600080fd5b600073ffffffffffffffffffffffffffffffffffffffff166000809054906101000a900473ffffffffffffffffffffffffffffffffffffffff1673ffffffffffffffffffffffffffffffffffffffff167f8be0079c531659141344cd1fd0a4f28419497f9722a3daafe3b4186f6b6457e060405160405180910390a360008060006101000a81548173ffffffffffffffffffffffffffffffffffffffff021916908373ffffffffffffffffffffffffffffffffffffffff160217905550565b6000600260008373ffffffffffffffffffffffffffffffffffffffff1673ffffffffffffffffffffffffffffffffffffffff16815260200190815260200160002060009054906101000a900460ff169050919050565b60008060009054906101000a900473ffffffffffffffffffffffffffffffffffffffff16905090565b60008060009054906101000a900473ffffffffffffffffffffffffffffffffffffffff1673ffffffffffffffffffffffffffffffffffffffff163373ffffffffffffffffffffffffffffffffffffffff1614905090565b600080821115156108b257600080fd5b600073ffffffffffffffffffffffffffffffffffffffff166001600084815260200190815260200160002060009054906101000a900473ffffffffffffffffffffffffffffffffffffffff1673ffffffffffffffffffffffffffffffffffffffff161415151561098a576040517f08c379a00000000000000000000000000000000000000000000000000000000081526004018080602001828103825260158152602001807f4e6f20737563682069737375657220657869737473000000000000000000000081525060200191505060405180910390fd5b6001600083815260200190815260200160002060009054906101000a900473ffffffffffffffffffffffffffffffffffffffff169050919050565b60026020528060005260406000206000915054906101000a900460ff1681565b6000806109f061084b565b15156109fb57600080fd5b600084111515610a0a57600080fd5b600073ffffffffffffffffffffffffffffffffffffffff166001600086815260200190815260200160002060009054906101000a900473ffffffffffffffffffffffffffffffffffffffff1673ffffffffffffffffffffffffffffffffffffffff1614151515610ae2576040517f08c379a00000000000000000000000000000000000000000000000000000000081526004018080602001828103825260158152602001807f4e6f20737563682069737375657220657869737473000000000000000000000081525060200191505060405180910390fd5b6003805490509150600090505b81811015610bf4578273ffffffffffffffffffffffffffffffffffffffff1660016000600384815481101515610b2157fe5b9060005260206000200154815260200190815260200160002060009054906101000a900473ffffffffffffffffffffffffffffffffffffffff1673ffffffffffffffffffffffffffffffffffffffff1614151515610be7576040517f08c379a00000000000000000000000000000000000000000000000000000000081526004018080602001828103825260168152602001807f4164647265737320616c7265616479206578697374730000000000000000000081525060200191505060405180910390fd5b8080600101915050610aef565b8273ffffffffffffffffffffffffffffffffffffffff166001600086815260200190815260200160002060009054906101000a900473ffffffffffffffffffffffffffffffffffffffff1673ffffffffffffffffffffffffffffffffffffffff16857f0d757e20fef03746ba5d41d864ae567d3c589ea12f7137390b2c4b4c18a15ea760405160405180910390a4826001600086815260200190815260200160002060006101000a81548173ffffffffffffffffffffffffffffffffffffffff021916908373ffffffffffffffffffffffffffffffffffffffff16021790555050505050565b600080610ce561084b565b1515610cf057600080fd5b600083111515610cff57600080fd5b600073ffffffffffffffffffffffffffffffffffffffff166001600085815260200190815260200160002060009054906101000a900473ffffffffffffffffffffffffffffffffffffffff1673ffffffffffffffffffffffffffffffffffffffff16141515610dfc576040517f08c379a000000000000000000000000000000000000000000000000000000000815260040180806020018281038252602b8152602001807f41207472757374656449737375657220616c726561647920657869737473206281526020017f792074686973206e616d6500000000000000000000000000000000000000000081525060400191505060405180910390fd5b600073ffffffffffffffffffffffffffffffffffffffff168473ffffffffffffffffffffffffffffffffffffffff1614151515610e3857600080fd5b6003805490509150600090505b81811015610f705760016000600383815481101515610e6057fe5b9060005260206000200154815260200190815260200160002060009054906101000a900473ffffffffffffffffffffffffffffffffffffffff1673ffffffffffffffffffffffffffffffffffffffff168473ffffffffffffffffffffffffffffffffffffffff1614151515610f63576040517f08c379a000000000000000000000000000000000000000000000000000000000815260040180806020018281038252602e8152602001807f497373756572206164647265737320616c72656164792065786973747320696e81526020017f20616e6f7468657220696e64657800000000000000000000000000000000000081525060400191505060405180910390fd5b8080600101915050610e45565b836001600085815260200190815260200160002060006101000a81548173ffffffffffffffffffffffffffffffffffffffff021916908373ffffffffffffffffffffffffffffffffffffffff1602179055506001600260008673ffffffffffffffffffffffffffffffffffffffff1673ffffffffffffffffffffffffffffffffffffffff16815260200190815260200160002060006101000a81548160ff02191690831515021790555060038390806001815401808255809150509060018203906000526020600020016000909192909190915055508373ffffffffffffffffffffffffffffffffffffffff16837fb21c96dabf41d7a4ec00c36c6e468a5199f4702291898478f42c58e3d3d94ece60405160405180910390a350505050565b606060038054806020026020016040519081016040528092919081815260200182805480156110de57602002820191906000526020600020905b8154815260200190600101908083116110ca575b5050505050905090565b6110f061084b565b15156110fb57600080fd5b61110481611107565b50565b600073ffffffffffffffffffffffffffffffffffffffff168173ffffffffffffffffffffffffffffffffffffffff161415151561114357600080fd5b8073ffffffffffffffffffffffffffffffffffffffff166000809054906101000a900473ffffffffffffffffffffffffffffffffffffffff1673ffffffffffffffffffffffffffffffffffffffff167f8be0079c531659141344cd1fd0a4f28419497f9722a3daafe3b4186f6b6457e060405160405180910390a3806000806101000a81548173ffffffffffffffffffffffffffffffffffffffff021916908373ffffffffffffffffffffffffffffffffffffffff16021790555050565b81548183558181111561122857818360005260206000209182019101611227919061122d565b5b505050565b61124f91905b8082111561124b576000816000905550600101611233565b5090565b905600a165627a7a72305820789a283563321894671a6a9185b14b59e394b5d261ded6a5a285a2f96ec66fad0029",
  "source": "pragma solidity ^0.4.24;\n\nimport \"./ClaimHolder.sol\";\n\nimport \"openzeppelin-solidity/contracts/ownership/Ownable.sol\";\n\ncontract TrustedIssuersRegistry is Ownable {\n    //Mapping between a trusted issuer index and its corresponding identity contract address.\n    mapping(uint => ClaimHolder) trustedIssuers;\n    //Mapping between a trusted issuer address and true/false if address is/is not trusted issuer\n    mapping(address => bool) public isTrustedIssuers;\n\n    //Array stores the trusted issuer indexes\n    uint[] indexes;\n\n    event TrustedIssuerAdded(uint indexed index, ClaimHolder indexed trustedIssuer);\n    event TrustedIssuerRemoved(uint indexed ndex, ClaimHolder indexed trustedIssuer);\n    event TrustedIssuerUpdated(uint indexed index, ClaimHolder indexed oldTrustedIssuer, ClaimHolder indexed newTrustedIssuer);\n\n    /**\n    * @notice Add the identity contract of a trusted claim issuer corresiponding\n    * to the index provided.\n    * Requires the index to be greater than zero.\n    * Requires that an identity contract doesnt already exist corresponding to the index.\n    * Only owner can call\n    *\n    * @param _trustedIssuer The identity contract address of the trusted claim issuer.\n    * @param index The desired index of the claim issuer\n    */\n    function addTrustedIssuer(ClaimHolder _trustedIssuer, uint index) public onlyOwner {\n        require(index > 0);\n        require(trustedIssuers[index] == address(0), \"A trustedIssuer already exists by this name\");\n        require(_trustedIssuer != address(0));\n        uint length = indexes.length;\n        for (uint i = 0; i < length; i++) {\n            require(_trustedIssuer != trustedIssuers[indexes[i]], \"Issuer address already exists in another index\");\n        }\n        trustedIssuers[index] = _trustedIssuer;\n        isTrustedIssuers[_trustedIssuer] = true;\n        indexes.push(index);\n        emit TrustedIssuerAdded(index, _trustedIssuer);\n    }\n\n    /**\n    * @notice Removes the identity contract of a trusted claim issuer corresponding\n    * to the index provided.\n    * Requires the index to be greater than zero.\n    * Requires that an identity contract exists corresponding to the index.\n    * Only owner can call.\n    *\n    * @param index The desired index of the claim issuer to be removed.\n    */\n    function removeTrustedIssuer(uint index) public onlyOwner {\n        require(index > 0);\n        require(trustedIssuers[index] != address(0), \"No such issuer exists\");\n        isTrustedIssuers[trustedIssuers[index]] = false;\n        delete trustedIssuers[index];\n        emit TrustedIssuerRemoved(index, trustedIssuers[index]);\n        uint length = indexes.length;\n        for (uint i = 0; i < length; i++) {\n            if (indexes[i] == index) {\n                delete indexes[i];\n                indexes[i] = indexes[length - 1];\n                delete indexes[length - 1];\n                indexes.length--;\n                return;\n            }\n        }\n    }\n\n    /**\n    * @notice Function for getting all the trusted claim issuer indexes stored.\n    * @return array of indexes of all the trusted claim issuer indexes stored.\n    */\n    function getTrustedIssuers() public view returns (uint[] memory) {\n        return indexes;\n    }\n\n    /**\n    * @notice Function for getting the trusted claim issuer's\n    * identity contract address corresponding to the index provided.\n    * Requires the provided index to have an identity contract stored.\n    * Only owner can call.\n    *\n    * @param index The index corresponding to which identity contract address is required.\n    *\n    * @return Address of the identity contract address of the trusted claim issuer.\n    */\n    function getTrustedIssuer(uint index) public view returns (ClaimHolder) {\n        require(index > 0);\n        require(trustedIssuers[index] != address(0), \"No such issuer exists\");\n        return trustedIssuers[index];\n    }\n\n    /**\n    * @notice Updates the identity contract of a trusted claim issuer corresponding\n    * to the index provided.\n    * Requires the index to be greater than zero.\n    * Requires that an identity contract already exists corresponding to the provided index.\n    * Only owner can call.\n    *\n    * @param index The desired index of the claim issuer to be updated.\n    * @param _newTrustedIssuer The new identity contract address of the trusted claim issuer.\n    */\n    function updateIssuerContract(uint index, ClaimHolder _newTrustedIssuer) public onlyOwner {\n        require(index > 0);\n        require(trustedIssuers[index] != address(0), \"No such issuer exists\");\n        uint length = indexes.length;\n        for (uint i = 0; i < length; i++) {\n            require(trustedIssuers[indexes[i]] != _newTrustedIssuer, \"Address already exists\");\n        }\n        emit TrustedIssuerUpdated(index, trustedIssuers[index], _newTrustedIssuer);\n        trustedIssuers[index] = _newTrustedIssuer;\n    }\n\n\n    /**\n    * @notice Check the given address is identity contract of a trusted claim issuer or not\n    * @param _trustedIssuerIdentity The given address will be check\n    * @return true or false\n    */\n    \n    function checkIsTrustedIssuer(address _trustedIssuerIdentity) public returns (bool) {\n        return isTrustedIssuers[_trustedIssuerIdentity];\n    }\n\n}",
  "sourcePath": "/Users/quanth/Documents/DecentralizedTwitter/contracts/Identity/TrustedIssuersRegistry.sol",
  "compiler": {
    "name": "solc",
    "version": "0.4.24+commit.e67f0147.Emscripten.clang"
  },
  "schemaVersion": "3.0.16",
  "updatedAt": "2019-11-26T09:09:23.282Z",
  "devdoc": {
    "methods": {
      "addTrustedIssuer(address,uint256)": {
        "params": {
          "_trustedIssuer": "The identity contract address of the trusted claim issuer.",
          "index": "The desired index of the claim issuer"
        }
      },
      "checkIsTrustedIssuer(address)": {
        "params": {
          "_trustedIssuerIdentity": "The given address will be check"
        },
        "return": "true or false"
      },
      "getTrustedIssuer(uint256)": {
        "params": {
          "index": "The index corresponding to which identity contract address is required."
        },
        "return": "Address of the identity contract address of the trusted claim issuer."
      },
      "getTrustedIssuers()": {
        "return": "array of indexes of all the trusted claim issuer indexes stored."
      },
      "isOwner()": {
        "return": "true if `msg.sender` is the owner of the contract."
      },
      "owner()": {
        "return": "the address of the owner."
      },
      "removeTrustedIssuer(uint256)": {
        "params": {
          "index": "The desired index of the claim issuer to be removed."
        }
      },
      "renounceOwnership()": {
        "details": "Allows the current owner to relinquish control of the contract."
      },
      "transferOwnership(address)": {
        "details": "Allows the current owner to transfer control of the contract to a newOwner.",
        "params": {
          "newOwner": "The address to transfer ownership to."
        }
      },
      "updateIssuerContract(uint256,address)": {
        "params": {
          "_newTrustedIssuer": "The new identity contract address of the trusted claim issuer.",
          "index": "The desired index of the claim issuer to be updated."
        }
      }
    }
  },
  "userdoc": {
    "methods": {
      "addTrustedIssuer(address,uint256)": {
        "notice": "Add the identity contract of a trusted claim issuer corresiponding to the index provided. Requires the index to be greater than zero. Requires that an identity contract doesnt already exist corresponding to the index. Only owner can call"
      },
      "checkIsTrustedIssuer(address)": {
        "notice": "Check the given address is identity contract of a trusted claim issuer or not"
      },
      "getTrustedIssuer(uint256)": {
        "notice": "Function for getting the trusted claim issuer's identity contract address corresponding to the index provided. Requires the provided index to have an identity contract stored. Only owner can call."
      },
      "getTrustedIssuers()": {
        "notice": "Function for getting all the trusted claim issuer indexes stored."
      },
      "removeTrustedIssuer(uint256)": {
        "notice": "Removes the identity contract of a trusted claim issuer corresponding to the index provided. Requires the index to be greater than zero. Requires that an identity contract exists corresponding to the index. Only owner can call."
      },
      "renounceOwnership()": {
        "notice": "Renouncing to ownership will leave the contract without an owner. It will not be possible to call the functions with the `onlyOwner` modifier anymore."
      },
      "updateIssuerContract(uint256,address)": {
        "notice": "Updates the identity contract of a trusted claim issuer corresponding to the index provided. Requires the index to be greater than zero. Requires that an identity contract already exists corresponding to the provided index. Only owner can call."
      }
    }
  }
}